{"abi":[{"type":"constructor","inputs":[{"name":"entryPoint_","type":"address","internalType":"contract IEntryPoint"}],"stateMutability":"nonpayable"},{"type":"receive","stateMutability":"payable"},{"type":"function","name":"addDeposit","inputs":[],"outputs":[],"stateMutability":"payable"},{"type":"function","name":"eip712Domain","inputs":[],"outputs":[{"name":"fields","type":"bytes1","internalType":"bytes1"},{"name":"name","type":"string","internalType":"string"},{"name":"version","type":"string","internalType":"string"},{"name":"chainId","type":"uint256","internalType":"uint256"},{"name":"verifyingContract","type":"address","internalType":"address"},{"name":"salt","type":"bytes32","internalType":"bytes32"},{"name":"extensions","type":"uint256[]","internalType":"uint256[]"}],"stateMutability":"view"},{"type":"function","name":"entryPoint","inputs":[],"outputs":[{"name":"","type":"address","internalType":"contract IEntryPoint"}],"stateMutability":"view"},{"type":"function","name":"execute","inputs":[{"name":"dest","type":"address","internalType":"address"},{"name":"value","type":"uint256","internalType":"uint256"},{"name":"func","type":"bytes","internalType":"bytes"}],"outputs":[],"stateMutability":"nonpayable"},{"type":"function","name":"executeBatch","inputs":[{"name":"dest","type":"address[]","internalType":"address[]"},{"name":"func","type":"bytes[]","internalType":"bytes[]"}],"outputs":[],"stateMutability":"nonpayable"},{"type":"function","name":"executeBatch","inputs":[{"name":"dest","type":"address[]","internalType":"address[]"},{"name":"value","type":"uint256[]","internalType":"uint256[]"},{"name":"func","type":"bytes[]","internalType":"bytes[]"}],"outputs":[],"stateMutability":"nonpayable"},{"type":"function","name":"executeOperation","inputs":[{"name":"","type":"address","internalType":"address"},{"name":"","type":"uint256","internalType":"uint256"},{"name":"","type":"uint256","internalType":"uint256"},{"name":"","type":"address","internalType":"address"},{"name":"params","type":"bytes","internalType":"bytes"}],"outputs":[{"name":"","type":"bool","internalType":"bool"}],"stateMutability":"nonpayable"},{"type":"function","name":"executeOperation","inputs":[{"name":"assets","type":"address[]","internalType":"address[]"},{"name":"amounts","type":"uint256[]","internalType":"uint256[]"},{"name":"premiums","type":"uint256[]","internalType":"uint256[]"},{"name":"initiator","type":"address","internalType":"address"},{"name":"params","type":"bytes","internalType":"bytes"}],"outputs":[{"name":"","type":"bool","internalType":"bool"}],"stateMutability":"nonpayable"},{"type":"function","name":"getDeposit","inputs":[],"outputs":[{"name":"","type":"uint256","internalType":"uint256"}],"stateMutability":"view"},{"type":"function","name":"getMessageHash","inputs":[{"name":"message","type":"bytes","internalType":"bytes"}],"outputs":[{"name":"","type":"bytes32","internalType":"bytes32"}],"stateMutability":"view"},{"type":"function","name":"getNonce","inputs":[],"outputs":[{"name":"","type":"uint256","internalType":"uint256"}],"stateMutability":"view"},{"type":"function","name":"initialize","inputs":[{"name":"owner_","type":"address","internalType":"address"}],"outputs":[],"stateMutability":"nonpayable"},{"type":"function","name":"isValidSignature","inputs":[{"name":"hash","type":"bytes32","internalType":"bytes32"},{"name":"signature","type":"bytes","internalType":"bytes"}],"outputs":[{"name":"","type":"bytes4","internalType":"bytes4"}],"stateMutability":"view"},{"type":"function","name":"onERC1155BatchReceived","inputs":[{"name":"","type":"address","internalType":"address"},{"name":"","type":"address","internalType":"address"},{"name":"","type":"uint256[]","internalType":"uint256[]"},{"name":"","type":"uint256[]","internalType":"uint256[]"},{"name":"","type":"bytes","internalType":"bytes"}],"outputs":[{"name":"","type":"bytes4","internalType":"bytes4"}],"stateMutability":"pure"},{"type":"function","name":"onERC1155Received","inputs":[{"name":"","type":"address","internalType":"address"},{"name":"","type":"address","internalType":"address"},{"name":"","type":"uint256","internalType":"uint256"},{"name":"","type":"uint256","internalType":"uint256"},{"name":"","type":"bytes","internalType":"bytes"}],"outputs":[{"name":"","type":"bytes4","internalType":"bytes4"}],"stateMutability":"pure"},{"type":"function","name":"onERC721Received","inputs":[{"name":"","type":"address","internalType":"address"},{"name":"","type":"address","internalType":"address"},{"name":"","type":"uint256","internalType":"uint256"},{"name":"","type":"bytes","internalType":"bytes"}],"outputs":[{"name":"","type":"bytes4","internalType":"bytes4"}],"stateMutability":"pure"},{"type":"function","name":"onMorphoFlashLoan","inputs":[{"name":"assets","type":"uint256","internalType":"uint256"},{"name":"params","type":"bytes","internalType":"bytes"}],"outputs":[],"stateMutability":"nonpayable"},{"type":"function","name":"owner","inputs":[],"outputs":[{"name":"","type":"address","internalType":"address"}],"stateMutability":"view"},{"type":"function","name":"performCreate","inputs":[{"name":"value","type":"uint256","internalType":"uint256"},{"name":"initCode","type":"bytes","internalType":"bytes"}],"outputs":[{"name":"createdAddr","type":"address","internalType":"address"}],"stateMutability":"payable"},{"type":"function","name":"performCreate2","inputs":[{"name":"value","type":"uint256","internalType":"uint256"},{"name":"initCode","type":"bytes","internalType":"bytes"},{"name":"salt","type":"bytes32","internalType":"bytes32"}],"outputs":[{"name":"createdAddr","type":"address","internalType":"address"}],"stateMutability":"payable"},{"type":"function","name":"receiveFlashLoan","inputs":[{"name":"data","type":"bytes","internalType":"bytes"}],"outputs":[],"stateMutability":"nonpayable"},{"type":"function","name":"receiveFlashLoan","inputs":[{"name":"","type":"address[]","internalType":"address[]"},{"name":"","type":"uint256[]","internalType":"uint256[]"},{"name":"","type":"uint256[]","internalType":"uint256[]"},{"name":"params","type":"bytes","internalType":"bytes"}],"outputs":[],"stateMutability":"nonpayable"},{"type":"function","name":"supportsInterface","inputs":[{"name":"interfaceId","type":"bytes4","internalType":"bytes4"}],"outputs":[{"name":"","type":"bool","internalType":"bool"}],"stateMutability":"view"},{"type":"function","name":"transferOwnership","inputs":[{"name":"newOwner","type":"address","internalType":"address"}],"outputs":[],"stateMutability":"nonpayable"},{"type":"function","name":"validateUserOp","inputs":[{"name":"userOp","type":"tuple","internalType":"struct PackedUserOperation","components":[{"name":"sender","type":"address","internalType":"address"},{"name":"nonce","type":"uint256","internalType":"uint256"},{"name":"initCode","type":"bytes","internalType":"bytes"},{"name":"callData","type":"bytes","internalType":"bytes"},{"name":"accountGasLimits","type":"bytes32","internalType":"bytes32"},{"name":"preVerificationGas","type":"uint256","internalType":"uint256"},{"name":"gasFees","type":"bytes32","internalType":"bytes32"},{"name":"paymasterAndData","type":"bytes","internalType":"bytes"},{"name":"signature","type":"bytes","internalType":"bytes"}]},{"name":"userOpHash","type":"bytes32","internalType":"bytes32"},{"name":"missingAccountFunds","type":"uint256","internalType":"uint256"}],"outputs":[{"name":"validationData","type":"uint256","internalType":"uint256"}],"stateMutability":"nonpayable"},{"type":"function","name":"withdrawDepositTo","inputs":[{"name":"withdrawAddress","type":"address","internalType":"address payable"},{"name":"amount","type":"uint256","internalType":"uint256"}],"outputs":[],"stateMutability":"nonpayable"},{"type":"event","name":"Initialized","inputs":[{"name":"version","type":"uint64","indexed":false,"internalType":"uint64"}],"anonymous":false},{"type":"event","name":"LightAccountInitialized","inputs":[{"name":"entryPoint","type":"address","indexed":true,"internalType":"contract IEntryPoint"},{"name":"owner","type":"address","indexed":true,"internalType":"address"}],"anonymous":false},{"type":"event","name":"OwnershipTransferred","inputs":[{"name":"previousOwner","type":"address","indexed":true,"internalType":"address"},{"name":"newOwner","type":"address","indexed":true,"internalType":"address"}],"anonymous":false},{"type":"error","name":"ArrayLengthMismatch","inputs":[]},{"type":"error","name":"CreateFailed","inputs":[]},{"type":"error","name":"ECDSAInvalidSignature","inputs":[]},{"type":"error","name":"ECDSAInvalidSignatureLength","inputs":[{"name":"length","type":"uint256","internalType":"uint256"}]},{"type":"error","name":"ECDSAInvalidSignatureS","inputs":[{"name":"s","type":"bytes32","internalType":"bytes32"}]},{"type":"error","name":"InvalidInitialization","inputs":[]},{"type":"error","name":"InvalidOwner","inputs":[{"name":"owner","type":"address","internalType":"address"}]},{"type":"error","name":"InvalidSignatureType","inputs":[]},{"type":"error","name":"Locked","inputs":[]},{"type":"error","name":"NotAuthorized","inputs":[{"name":"caller","type":"address","internalType":"address"}]},{"type":"error","name":"NotInitializing","inputs":[]},{"type":"error","name":"ZeroAddressNotAllowed","inputs":[]}],"bytecode":{"object":"0x610160604052348015610010575f5ffd5b50604051612f83380380612f8383398101604081905261002f916101c0565b306080524660a052807f5886a89854f64cffde2e739819f75451c42a85563516fe8eab2ef059d7e9f52660608061009d604080518082018252600c81526b119b185cda1058d8dbdd5b9d60a21b602080830191909152825180840190935260018352603160f81b9083015291565b815160209283012081519183019190912060c082905260e0819052604080517f8b73c3c69bb8fe3d512ecc4cf759cc79239f7b179b0ffacaa9a75d522b39400f8152938401929092529082015246606082015230608082015260a09020610100525050610140526001600160a01b0381166101205261011a610121565b50506101ed565b5f61012c6101405190565b805490915068010000000000000000900460ff161561015e5760405163f92ee8a960e01b815260040160405180910390fd5b80546001600160401b03908116146101bd5780546001600160401b0319166001600160401b0390811782556040519081527fc7f505b2f371ae2175ee4913f4499e1f2633a7b5936321eed1cdaeb6115181d29060200160405180910390a15b50565b5f602082840312156101d0575f5ffd5b81516001600160a01b03811681146101e6575f5ffd5b9392505050565b60805160a05160c05160e051610100516101205161014051612d1461026f5f395f61100901525f818161046701528181610b3001528181610ca101528181610f98015281816111d00152818161158a0152818161163e0152611a6901525f61130601525f6113c001525f61139a01525f61134a01525f6113270152612d145ff3fe60806040526004361061019c575f3560e01c80637b72d2ce116100dc578063bc197c8111610087578063d087d28811610062578063d087d28814610524578063f04f270714610538578063f23a6e6114610557578063f2fde38b1461059c575f5ffd5b8063bc197c81146104aa578063c399ec88146104f1578063c4d66de814610505575f5ffd5b8063920f5c84116100b7578063920f5c841461043a578063b0d691fe14610459578063b61d27f61461048b575f5ffd5b80637b72d2ce146103ab57806384b0196e146103ca5780638da5cb5b146103f1575f5ffd5b80631b11d0ff116101475780634847be6f116101225780634847be6f146103395780634a58db19146103715780634c8c9ea1146103795780634d44560d1461038c575f5ffd5b80631b11d0ff146102dc57806331f57072146102fb57806347e1da2a1461031a575f5ffd5b80631626ba7e116101775780631626ba7e1461027d57806318dfb3c71461029c57806319822f7c146102bd575f5ffd5b806301ffc9a7146101a75780630a1028c4146101db578063150b7a0214610208575f5ffd5b366101a357005b5f5ffd5b3480156101b2575f5ffd5b506101c66101c13660046120a6565b6105bb565b60405190151581526020015b60405180910390f35b3480156101e6575f5ffd5b506101fa6101f53660046121af565b61069f565b6040519081526020016101d2565b348015610213575f5ffd5b5061024c61022236600461224f565b7f150b7a020000000000000000000000000000000000000000000000000000000095945050505050565b6040517fffffffff0000000000000000000000000000000000000000000000000000000090911681526020016101d2565b348015610288575f5ffd5b5061024c6102973660046122bd565b61070c565b3480156102a7575f5ffd5b506102bb6102b6366004612346565b610796565b005b3480156102c8575f5ffd5b506101fa6102d73660046123b2565b6108c2565b3480156102e7575f5ffd5b506101c66102f6366004612401565b6108e0565b348015610306575f5ffd5b506102bb6103153660046122bd565b61094a565b348015610325575f5ffd5b506102bb610334366004612478565b6109aa565b61034c610347366004612505565b610ab2565b60405173ffffffffffffffffffffffffffffffffffffffff90911681526020016101d2565b6102bb610b2e565b61034c6103873660046122bd565b610bd0565b348015610397575f5ffd5b506102bb6103a6366004612554565b610c4a565b3480156103b6575f5ffd5b506102bb6103c536600461257e565b610d49565b3480156103d5575f5ffd5b506103de610da8565b6040516101d297969594939291906125eb565b3480156103fc575f5ffd5b507ffe43cac86d2632475e173babfc884cd7f9ce21169af8b16db096c27563e34c095473ffffffffffffffffffffffffffffffffffffffff1661034c565b348015610445575f5ffd5b506101c66104543660046126aa565b610e50565b348015610464575f5ffd5b507f000000000000000000000000000000000000000000000000000000000000000061034c565b348015610496575f5ffd5b506102bb6104a536600461278c565b610ebd565b3480156104b5575f5ffd5b5061024c6104c43660046127d8565b7fbc197c810000000000000000000000000000000000000000000000000000000098975050505050505050565b3480156104fc575f5ffd5b506101fa610f53565b348015610510575f5ffd5b506102bb61051f36600461289b565b611007565b34801561052f575f5ffd5b506101fa611184565b348015610543575f5ffd5b506102bb6105523660046128b6565b6111ff565b348015610562575f5ffd5b5061024c610571366004612964565b7ff23a6e61000000000000000000000000000000000000000000000000000000009695505050505050565b3480156105a7575f5ffd5b506102bb6105b636600461289b565b611264565b5f7fffffffff0000000000000000000000000000000000000000000000000000000082167f150b7a0200000000000000000000000000000000000000000000000000000000148061064d57507fffffffff0000000000000000000000000000000000000000000000000000000082167f4e2312e000000000000000000000000000000000000000000000000000000000145b8061069957507fffffffff0000000000000000000000000000000000000000000000000000000082167f01ffc9a700000000000000000000000000000000000000000000000000000000145b92915050565b5f5f7f5e3baca2936049843f06038876a12f03627b5edc98025751ecf2ac756264019983805190602001206040516020016106e4929190918252602082015260400190565b60405160208183030381529060405280519060200120905061070581611304565b9392505050565b5f61074161073a8560405160200161072691815260200190565b60405160208183030381529060405261069f565b848461141a565b1561076d57507f1626ba7e00000000000000000000000000000000000000000000000000000000610705565b507fffffffff000000000000000000000000000000000000000000000000000000009392505050565b61079e611572565b60027f3c25485dd7fcb5b79c6e101a51e4ac1d265adde8f4b2805851861db54821825d558281146107fb576040517fa24a13a600000000000000000000000000000000000000000000000000000000815260040160405180910390fd5b825f5b818110156108965761088e86868381811061081b5761081b6129bd565b9050602002016020810190610830919061289b565b5f868685818110610843576108436129bd565b905060200281019061085591906129ea565b8080601f0160208091040260200160405190810160405280939291908181526020018383808284375f9201919091525061160492505050565b6001016107fe565b505060017f3c25485dd7fcb5b79c6e101a51e4ac1d265adde8f4b2805851861db54821825d5550505050565b5f6108cb611626565b6108d584846116c5565b905061070582611876565b5f7f3c25485dd7fcb5b79c6e101a51e4ac1d265adde8f4b2805851861db54821825d5460021815610933577f0f2e5b6c000000000000000000000000000000000000000000000000000000005f5260045ffd5b61093d83836118de565b5060019695505050505050565b7f3c25485dd7fcb5b79c6e101a51e4ac1d265adde8f4b2805851861db54821825d5460021461099b577f0f2e5b6c000000000000000000000000000000000000000000000000000000005f5260045ffd5b6109a582826118de565b505050565b6109b2611572565b60027f3c25485dd7fcb5b79c6e101a51e4ac1d265adde8f4b2805851861db54821825d5584811415806109e55750848314155b15610a1c576040517fa24a13a600000000000000000000000000000000000000000000000000000000815260040160405180910390fd5b845f5b81811015610a8457610a7c888883818110610a3c57610a3c6129bd565b9050602002016020810190610a51919061289b565b878784818110610a6357610a636129bd565b90506020020135868685818110610843576108436129bd565b600101610a1f565b505060017f3c25485dd7fcb5b79c6e101a51e4ac1d265adde8f4b2805851861db54821825d55505050505050565b5f610abb611572565b60027f3c25485dd7fcb5b79c6e101a51e4ac1d265adde8f4b2805851861db54821825d55604051838086833783818389f59250505080610b0257637e16b8cd5f526004601cfd5b60017f3c25485dd7fcb5b79c6e101a51e4ac1d265adde8f4b2805851861db54821825d55949350505050565b7f00000000000000000000000000000000000000000000000000000000000000006040517fb760faf900000000000000000000000000000000000000000000000000000000815230600482015273ffffffffffffffffffffffffffffffffffffffff919091169063b760faf99034906024015f604051808303818588803b158015610bb7575f5ffd5b505af1158015610bc9573d5f5f3e3d5ffd5b5050505050565b5f610bd9611572565b60027f3c25485dd7fcb5b79c6e101a51e4ac1d265adde8f4b2805851861db54821825d556040518280858337808287f09250505080610c1f57637e16b8cd5f526004601cfd5b60017f3c25485dd7fcb5b79c6e101a51e4ac1d265adde8f4b2805851861db54821825d559392505050565b610c52611572565b73ffffffffffffffffffffffffffffffffffffffff8216610c9f576040517f8579befe00000000000000000000000000000000000000000000000000000000815260040160405180910390fd5b7f00000000000000000000000000000000000000000000000000000000000000006040517f205c287800000000000000000000000000000000000000000000000000000000815273ffffffffffffffffffffffffffffffffffffffff848116600483015260248201849052919091169063205c2878906044015f604051808303815f87803b158015610d2f575f5ffd5b505af1158015610d41573d5f5f3e3d5ffd5b505050505050565b7f3c25485dd7fcb5b79c6e101a51e4ac1d265adde8f4b2805851861db54821825d54600214610d9a577f0f2e5b6c000000000000000000000000000000000000000000000000000000005f5260045ffd5b610da482826118de565b5050565b7f0f000000000000000000000000000000000000000000000000000000000000006060805f808083610e3e604080518082018252600c81527f466c6173684163636f756e7400000000000000000000000000000000000000006020808301919091528251808401909352600183527f31000000000000000000000000000000000000000000000000000000000000009083015291565b97989097965046955030945091925090565b5f7f3c25485dd7fcb5b79c6e101a51e4ac1d265adde8f4b2805851861db54821825d5460021815610ea3577f0f2e5b6c000000000000000000000000000000000000000000000000000000005f5260045ffd5b610ead83836118de565b5060019998505050505050505050565b610ec5611572565b60027f3c25485dd7fcb5b79c6e101a51e4ac1d265adde8f4b2805851861db54821825d55610f29848484848080601f0160208091040260200160405190810160405280939291908181526020018383808284375f9201919091525061160492505050565b60017f3c25485dd7fcb5b79c6e101a51e4ac1d265adde8f4b2805851861db54821825d5550505050565b6040517f70a082310000000000000000000000000000000000000000000000000000000081523060048201525f9073ffffffffffffffffffffffffffffffffffffffff7f000000000000000000000000000000000000000000000000000000000000000016906370a08231906024015b602060405180830381865afa158015610fde573d5f5f3e3d5ffd5b505050506040513d601f19601f820116820180604052508101906110029190612a4b565b905090565b7f0000000000000000000000000000000000000000000000000000000000000000805468010000000000000000810460ff16159067ffffffffffffffff165f811580156110515750825b90505f8267ffffffffffffffff16600114801561106d5750303b155b90508115801561107b575080155b156110b2576040517ff92ee8a900000000000000000000000000000000000000000000000000000000815260040160405180910390fd5b84547fffffffffffffffffffffffffffffffffffffffffffffffff000000000000000016600117855583156111135784547fffffffffffffffffffffffffffffffffffffffffffffff00ffffffffffffffff16680100000000000000001785555b61111c866119b0565b8315610d415784547fffffffffffffffffffffffffffffffffffffffffffffff00ffffffffffffffff168555604051600181527fc7f505b2f371ae2175ee4913f4499e1f2633a7b5936321eed1cdaeb6115181d29060200160405180910390a1505050505050565b6040517f35567e1a0000000000000000000000000000000000000000000000000000000081523060048201525f602482018190529073ffffffffffffffffffffffffffffffffffffffff7f000000000000000000000000000000000000000000000000000000000000000016906335567e1a90604401610fc3565b7f3c25485dd7fcb5b79c6e101a51e4ac1d265adde8f4b2805851861db54821825d54600214611250577f0f2e5b6c000000000000000000000000000000000000000000000000000000005f5260045ffd5b61125a82826118de565b5050505050505050565b61126c611572565b73ffffffffffffffffffffffffffffffffffffffff811615806112a4575073ffffffffffffffffffffffffffffffffffffffff811630145b156112f8576040517fb20f76e300000000000000000000000000000000000000000000000000000000815273ffffffffffffffffffffffffffffffffffffffff821660048201526024015b60405180910390fd5b61130181611af4565b50565b7f00000000000000000000000000000000000000000000000000000000000000007f000000000000000000000000000000000000000000000000000000000000000030147f00000000000000000000000000000000000000000000000000000000000000004614166113f75750604080517f8b73c3c69bb8fe3d512ecc4cf759cc79239f7b179b0ffacaa9a75d522b39400f81527f000000000000000000000000000000000000000000000000000000000000000060208201527f00000000000000000000000000000000000000000000000000000000000000009181019190915246606082015230608082015260a090205b6719010000000000005f5280601a5281603a52604260182090505f603a52919050565b5f6001821015611456576040517f60cd402d00000000000000000000000000000000000000000000000000000000815260040160405180910390fd5b5f83835f818110611469576114696129bd565b919091013560f81c91508190506114cc576114c48561148b8560018189612a8f565b8080601f0160208091040260200160405190810160405280939291908181526020018383808284375f92019190915250611bf592505050565b915050610705565b7fffffffffffffffffffffffffffffffffffffffffffffffffffffffffffffffff60ff821601611540576114c4856115078560018189612a8f565b8080601f0160208091040260200160405190810160405280939291908181526020018383808284375f92019190915250611c6392505050565b6040517f60cd402d00000000000000000000000000000000000000000000000000000000815260040160405180910390fd5b3373ffffffffffffffffffffffffffffffffffffffff7f000000000000000000000000000000000000000000000000000000000000000016148015906115b85750333014155b80156115c957506115c7611cac565b155b15611602576040517f4a0bfec10000000000000000000000000000000000000000000000000000000081523360048201526024016112ef565b565b5f5f82516020840185875af180611620576040513d5f823e3d81fd5b50505050565b3373ffffffffffffffffffffffffffffffffffffffff7f00000000000000000000000000000000000000000000000000000000000000001614611602576040517f08c379a000000000000000000000000000000000000000000000000000000000815260206004820152601c60248201527f6163636f756e743a206e6f742066726f6d20456e747279506f696e740000000060448201526064016112ef565b5f60016116d66101008501856129ea565b90501015611710576040517f60cd402d00000000000000000000000000000000000000000000000000000000815260040160405180910390fd5b5f61171f6101008501856129ea565b5f81811061172f5761172f6129bd565b919091013560f81c91508190506117e0577f19457468657265756d205369676e6564204d6573736167653a0a3332000000005f908152601c849052603c81209061177d6101008701876129ea565b61178b916001908290612a8f565b8080601f0160208091040260200160405190810160405280939291908181526020018383808284375f920191909152509293506117d692506117d1915084905083611bf5565b611d1e565b9350505050610699565b7fffffffffffffffffffffffffffffffffffffffffffffffffffffffffffffffff60ff821601611540575f6118196101008601866129ea565b611827916001908290612a8f565b8080601f0160208091040260200160405190810160405280939291908181526020018383808284375f9201919091525092935061186d92506117d1915086905083611c63565b95945050505050565b8015611301576040515f9033907fffffffffffffffffffffffffffffffffffffffffffffffffffffffffffffffff90849084818181858888f193505050503d805f8114610bc9576040519150601f19603f3d011682016040523d82523d5f602084013e610bc9565b5f80806118ed84860186612bc2565b9250925092508051835114158061190657508151835114155b1561193d576040517fa24a13a600000000000000000000000000000000000000000000000000000000815260040160405180910390fd5b82515f5b818110156119a75761199f85828151811061195e5761195e6129bd565b6020026020010151858381518110611978576119786129bd565b6020026020010151858481518110611992576119926129bd565b6020026020010151611604565b600101611941565b50505050505050565b73ffffffffffffffffffffffffffffffffffffffff81166119ff576040517fb20f76e30000000000000000000000000000000000000000000000000000000081525f60048201526024016112ef565b807ffe43cac86d2632475e173babfc884cd7f9ce21169af8b16db096c27563e34c0980547fffffffffffffffffffffffff00000000000000000000000000000000000000001673ffffffffffffffffffffffffffffffffffffffff928316179055604051828216917f000000000000000000000000000000000000000000000000000000000000000016907fec6a23b49d2c363d250c9dda15610e835d428207d15ddb36a6c230e37371ddf1905f90a360405173ffffffffffffffffffffffffffffffffffffffff8216905f907f8be0079c531659141344cd1fd0a4f28419497f9722a3daafe3b4186f6b6457e0908290a350565b7ffe43cac86d2632475e173babfc884cd7f9ce21169af8b16db096c27563e34c09805473ffffffffffffffffffffffffffffffffffffffff908116908316819003611b83576040517fb20f76e300000000000000000000000000000000000000000000000000000000815273ffffffffffffffffffffffffffffffffffffffff841660048201526024016112ef565b81547fffffffffffffffffffffffff00000000000000000000000000000000000000001673ffffffffffffffffffffffffffffffffffffffff8481169182178455604051908316907f8be0079c531659141344cd1fd0a4f28419497f9722a3daafe3b4186f6b6457e0905f90a3505050565b5f80611c018484611d32565b9050611c417ffe43cac86d2632475e173babfc884cd7f9ce21169af8b16db096c27563e34c095473ffffffffffffffffffffffffffffffffffffffff1690565b73ffffffffffffffffffffffffffffffffffffffff9182169116149392505050565b5f610705611ca57ffe43cac86d2632475e173babfc884cd7f9ce21169af8b16db096c27563e34c095473ffffffffffffffffffffffffffffffffffffffff1690565b8484611d5a565b5f611ceb7ffe43cac86d2632475e173babfc884cd7f9ce21169af8b16db096c27563e34c095473ffffffffffffffffffffffffffffffffffffffff1690565b73ffffffffffffffffffffffffffffffffffffffff163373ffffffffffffffffffffffffffffffffffffffff1614905090565b5f81611d2b576001610699565b5f92915050565b5f5f5f5f611d408686611e85565b925092509250611d508282611ece565b5090949350505050565b5f5f5f8573ffffffffffffffffffffffffffffffffffffffff168585604051602401611d87929190612cb0565b60408051601f198184030181529181526020820180517bffffffffffffffffffffffffffffffffffffffffffffffffffffffff167f1626ba7e0000000000000000000000000000000000000000000000000000000017905251611dea9190612cc8565b5f60405180830381855afa9150503d805f8114611e22576040519150601f19603f3d011682016040523d82523d5f602084013e611e27565b606091505b5091509150818015611e3b57506020815110155b8015611e7b575080517f1626ba7e0000000000000000000000000000000000000000000000000000000090611e799083016020908101908401612a4b565b145b9695505050505050565b5f5f5f8351604103611ebc576020840151604085015160608601515f1a611eae88828585611fd1565b955095509550505050611ec7565b505081515f91506002905b9250925092565b5f826003811115611ee157611ee1612a62565b03611eea575050565b6001826003811115611efe57611efe612a62565b03611f35576040517ff645eedf00000000000000000000000000000000000000000000000000000000815260040160405180910390fd5b6002826003811115611f4957611f49612a62565b03611f83576040517ffce698f7000000000000000000000000000000000000000000000000000000008152600481018290526024016112ef565b6003826003811115611f9757611f97612a62565b03610da4576040517fd78bce0c000000000000000000000000000000000000000000000000000000008152600481018290526024016112ef565b5f80807f7fffffffffffffffffffffffffffffff5d576e7357a4501ddfe92f46681b20a084111561200a57505f9150600390508261209c565b604080515f808252602082018084528a905260ff891692820192909252606081018790526080810186905260019060a0016020604051602081039080840390855afa15801561205b573d5f5f3e3d5ffd5b5050604051601f19015191505073ffffffffffffffffffffffffffffffffffffffff811661209357505f92506001915082905061209c565b92505f91508190505b9450945094915050565b5f602082840312156120b6575f5ffd5b81357fffffffff0000000000000000000000000000000000000000000000000000000081168114610705575f5ffd5b7f4e487b71000000000000000000000000000000000000000000000000000000005f52604160045260245ffd5b604051601f8201601f1916810167ffffffffffffffff8111828210171561213b5761213b6120e5565b604052919050565b5f82601f830112612152575f5ffd5b813567ffffffffffffffff81111561216c5761216c6120e5565b61217f6020601f19601f84011601612112565b818152846020838601011115612193575f5ffd5b816020850160208301375f918101602001919091529392505050565b5f602082840312156121bf575f5ffd5b813567ffffffffffffffff8111156121d5575f5ffd5b6121e184828501612143565b949350505050565b73ffffffffffffffffffffffffffffffffffffffff81168114611301575f5ffd5b5f5f83601f84011261221a575f5ffd5b50813567ffffffffffffffff811115612231575f5ffd5b602083019150836020828501011115612248575f5ffd5b9250929050565b5f5f5f5f5f60808688031215612263575f5ffd5b853561226e816121e9565b9450602086013561227e816121e9565b935060408601359250606086013567ffffffffffffffff8111156122a0575f5ffd5b6122ac8882890161220a565b969995985093965092949392505050565b5f5f5f604084860312156122cf575f5ffd5b83359250602084013567ffffffffffffffff8111156122ec575f5ffd5b6122f88682870161220a565b9497909650939450505050565b5f5f83601f840112612315575f5ffd5b50813567ffffffffffffffff81111561232c575f5ffd5b6020830191508360208260051b8501011115612248575f5ffd5b5f5f5f5f60408587031215612359575f5ffd5b843567ffffffffffffffff81111561236f575f5ffd5b61237b87828801612305565b909550935050602085013567ffffffffffffffff81111561239a575f5ffd5b6123a687828801612305565b95989497509550505050565b5f5f5f606084860312156123c4575f5ffd5b833567ffffffffffffffff8111156123da575f5ffd5b840161012081870312156123ec575f5ffd5b95602085013595506040909401359392505050565b5f5f5f5f5f5f60a08789031215612416575f5ffd5b8635612421816121e9565b95506020870135945060408701359350606087013561243f816121e9565b9250608087013567ffffffffffffffff81111561245a575f5ffd5b61246689828a0161220a565b979a9699509497509295939492505050565b5f5f5f5f5f5f6060878903121561248d575f5ffd5b863567ffffffffffffffff8111156124a3575f5ffd5b6124af89828a01612305565b909750955050602087013567ffffffffffffffff8111156124ce575f5ffd5b6124da89828a01612305565b909550935050604087013567ffffffffffffffff8111156124f9575f5ffd5b61246689828a01612305565b5f5f5f5f60608587031215612518575f5ffd5b84359350602085013567ffffffffffffffff811115612535575f5ffd5b6125418782880161220a565b9598909750949560400135949350505050565b5f5f60408385031215612565575f5ffd5b8235612570816121e9565b946020939093013593505050565b5f5f6020838503121561258f575f5ffd5b823567ffffffffffffffff8111156125a5575f5ffd5b6125b18582860161220a565b90969095509350505050565b5f81518084528060208401602086015e5f602082860101526020601f19601f83011685010191505092915050565b7fff000000000000000000000000000000000000000000000000000000000000008816815260e060208201525f61262560e08301896125bd565b828103604084015261263781896125bd565b6060840188905273ffffffffffffffffffffffffffffffffffffffff8716608085015260a0840186905283810360c0850152845180825260208087019350909101905f5b8181101561269957835183526020938401939092019160010161267b565b50909b9a5050505050505050505050565b5f5f5f5f5f5f5f5f5f60a08a8c0312156126c2575f5ffd5b893567ffffffffffffffff8111156126d8575f5ffd5b6126e48c828d01612305565b909a5098505060208a013567ffffffffffffffff811115612703575f5ffd5b61270f8c828d01612305565b90985096505060408a013567ffffffffffffffff81111561272e575f5ffd5b61273a8c828d01612305565b90965094505060608a013561274e816121e9565b925060808a013567ffffffffffffffff811115612769575f5ffd5b6127758c828d0161220a565b915080935050809150509295985092959850929598565b5f5f5f5f6060858703121561279f575f5ffd5b84356127aa816121e9565b935060208501359250604085013567ffffffffffffffff8111156127cc575f5ffd5b6123a68782880161220a565b5f5f5f5f5f5f5f5f60a0898b0312156127ef575f5ffd5b88356127fa816121e9565b9750602089013561280a816121e9565b9650604089013567ffffffffffffffff811115612825575f5ffd5b6128318b828c01612305565b909750955050606089013567ffffffffffffffff811115612850575f5ffd5b61285c8b828c01612305565b909550935050608089013567ffffffffffffffff81111561287b575f5ffd5b6128878b828c0161220a565b999c989b5096995094979396929594505050565b5f602082840312156128ab575f5ffd5b8135610705816121e9565b5f5f5f5f5f5f5f5f6080898b0312156128cd575f5ffd5b883567ffffffffffffffff8111156128e3575f5ffd5b6128ef8b828c01612305565b909950975050602089013567ffffffffffffffff81111561290e575f5ffd5b61291a8b828c01612305565b909750955050604089013567ffffffffffffffff811115612939575f5ffd5b6129458b828c01612305565b909550935050606089013567ffffffffffffffff81111561287b575f5ffd5b5f5f5f5f5f5f60a08789031215612979575f5ffd5b8635612984816121e9565b95506020870135612994816121e9565b94506040870135935060608701359250608087013567ffffffffffffffff81111561245a575f5ffd5b7f4e487b71000000000000000000000000000000000000000000000000000000005f52603260045260245ffd5b5f5f83357fffffffffffffffffffffffffffffffffffffffffffffffffffffffffffffffe1843603018112612a1d575f5ffd5b83018035915067ffffffffffffffff821115612a37575f5ffd5b602001915036819003821315612248575f5ffd5b5f60208284031215612a5b575f5ffd5b5051919050565b7f4e487b71000000000000000000000000000000000000000000000000000000005f52602160045260245ffd5b5f5f85851115612a9d575f5ffd5b83861115612aa9575f5ffd5b5050820193919092039150565b5f67ffffffffffffffff821115612acf57612acf6120e5565b5060051b60200190565b5f82601f830112612ae8575f5ffd5b8135612afb612af682612ab6565b612112565b8082825260208201915060208360051b860101925085831115612b1c575f5ffd5b602085015b83811015612b39578035835260209283019201612b21565b5095945050505050565b5f82601f830112612b52575f5ffd5b8135612b60612af682612ab6565b8082825260208201915060208360051b860101925085831115612b81575f5ffd5b602085015b83811015612b3957803567ffffffffffffffff811115612ba4575f5ffd5b612bb3886020838a0101612143565b84525060209283019201612b86565b5f5f5f60608486031215612bd4575f5ffd5b833567ffffffffffffffff811115612bea575f5ffd5b8401601f81018613612bfa575f5ffd5b8035612c08612af682612ab6565b8082825260208201915060208360051b850101925088831115612c29575f5ffd5b6020840193505b82841015612c54578335612c43816121e9565b825260209384019390910190612c30565b9550505050602084013567ffffffffffffffff811115612c72575f5ffd5b612c7e86828701612ad9565b925050604084013567ffffffffffffffff811115612c9a575f5ffd5b612ca686828701612b43565b9150509250925092565b828152604060208201525f6121e160408301846125bd565b5f82518060208501845e5f92019182525091905056fea2646970667358221220feb32d151bee9ae1d63dedd2c016d225577b807df04828df2c012bce1219a43164736f6c634300081c0033","linkReferences":{}},"methodIdentifiers":{"addDeposit()":"4a58db19","eip712Domain()":"84b0196e","entryPoint()":"b0d691fe","execute(address,uint256,bytes)":"b61d27f6","executeBatch(address[],bytes[])":"18dfb3c7","executeBatch(address[],uint256[],bytes[])":"47e1da2a","executeOperation(address,uint256,uint256,address,bytes)":"1b11d0ff","executeOperation(address[],uint256[],uint256[],address,bytes)":"920f5c84","getDeposit()":"c399ec88","getMessageHash(bytes)":"0a1028c4","getNonce()":"d087d288","initialize(address)":"c4d66de8","isValidSignature(bytes32,bytes)":"1626ba7e","onERC1155BatchReceived(address,address,uint256[],uint256[],bytes)":"bc197c81","onERC1155Received(address,address,uint256,uint256,bytes)":"f23a6e61","onERC721Received(address,address,uint256,bytes)":"150b7a02","onMorphoFlashLoan(uint256,bytes)":"31f57072","owner()":"8da5cb5b","performCreate(uint256,bytes)":"4c8c9ea1","performCreate2(uint256,bytes,bytes32)":"4847be6f","receiveFlashLoan(address[],uint256[],uint256[],bytes)":"f04f2707","receiveFlashLoan(bytes)":"7b72d2ce","supportsInterface(bytes4)":"01ffc9a7","transferOwnership(address)":"f2fde38b","validateUserOp((address,uint256,bytes,bytes,bytes32,uint256,bytes32,bytes,bytes),bytes32,uint256)":"19822f7c","withdrawDepositTo(address,uint256)":"4d44560d"},"id":0}