{
  "abi": [
    {
      "type": "constructor",
      "inputs": [
        {
          "name": "weth_",
          "type": "address",
          "internalType": "address"
        }
      ],
      "stateMutability": "nonpayable"
    },
    {
      "type": "function",
      "name": "NATIVE_ADDRESS",
      "inputs": [],
      "outputs": [
        {
          "name": "",
          "type": "address",
          "internalType": "address"
        }
      ],
      "stateMutability": "view"
    },
    {
      "type": "function",
      "name": "WETH",
      "inputs": [],
      "outputs": [
        {
          "name": "",
          "type": "address",
          "internalType": "address"
        }
      ],
      "stateMutability": "view"
    },
    {
      "type": "function",
      "name": "ZERO_ADDRESS",
      "inputs": [],
      "outputs": [
        {
          "name": "",
          "type": "address",
          "internalType": "address"
        }
      ],
      "stateMutability": "view"
    },
    {
      "type": "function",
      "name": "isApprovedAddress",
      "inputs": [
        {
          "name": "",
          "type": "address",
          "internalType": "address"
        },
        {
          "name": "",
          "type": "address",
          "internalType": "address"
        }
      ],
      "outputs": [
        {
          "name": "",
          "type": "bool",
          "internalType": "bool"
        }
      ],
      "stateMutability": "view"
    },
    {
      "type": "function",
      "name": "repay",
      "inputs": [
        {
          "name": "cToken",
          "type": "address",
          "internalType": "address"
        },
        {
          "name": "underlying",
          "type": "address",
          "internalType": "address"
        },
        {
          "name": "borrower",
          "type": "address",
          "internalType": "address"
        },
        {
          "name": "onbehalfOf",
          "type": "address",
          "internalType": "address"
        },
        {
          "name": "amount",
          "type": "uint256",
          "internalType": "uint256"
        }
      ],
      "outputs": [
        {
          "name": "result",
          "type": "uint256",
          "internalType": "uint256"
        }
      ],
      "stateMutability": "nonpayable"
    },
    {
      "type": "function",
      "name": "repayNative",
      "inputs": [
        {
          "name": "cToken",
          "type": "address",
          "internalType": "address"
        },
        {
          "name": "borrower",
          "type": "address",
          "internalType": "address"
        },
        {
          "name": "onbehalfOf",
          "type": "address",
          "internalType": "address"
        },
        {
          "name": "amount",
          "type": "uint256",
          "internalType": "uint256"
        }
      ],
      "outputs": [
        {
          "name": "result",
          "type": "uint256",
          "internalType": "uint256"
        }
      ],
      "stateMutability": "payable"
    },
    {
      "type": "function",
      "name": "supply",
      "inputs": [
        {
          "name": "cToken",
          "type": "address",
          "internalType": "address"
        },
        {
          "name": "underlying",
          "type": "address",
          "internalType": "address"
        },
        {
          "name": "onbehalfOf",
          "type": "address",
          "internalType": "address"
        }
      ],
      "outputs": [
        {
          "name": "result",
          "type": "uint256",
          "internalType": "uint256"
        }
      ],
      "stateMutability": "nonpayable"
    },
    {
      "type": "function",
      "name": "supplyNative",
      "inputs": [
        {
          "name": "cToken",
          "type": "address",
          "internalType": "address"
        },
        {
          "name": "onbehalfOf",
          "type": "address",
          "internalType": "address"
        }
      ],
      "outputs": [
        {
          "name": "result",
          "type": "uint256",
          "internalType": "uint256"
        }
      ],
      "stateMutability": "payable"
    },
    {
      "type": "error",
      "name": "CantRepaySelf",
      "inputs": []
    },
    {
      "type": "error",
      "name": "MintFailed",
      "inputs": [
        {
          "name": "failureCode",
          "type": "uint256",
          "internalType": "uint256"
        }
      ]
    },
    {
      "type": "error",
      "name": "RepayFailed",
      "inputs": [
        {
          "name": "failureCode",
          "type": "uint256",
          "internalType": "uint256"
        }
      ]
    },
    {
      "type": "error",
      "name": "SafeERC20FailedOperation",
      "inputs": [
        {
          "name": "token",
          "type": "address",
          "internalType": "address"
        }
      ]
    },
    {
      "type": "error",
      "name": "TransferFailed",
      "inputs": []
    },
    {
      "type": "error",
      "name": "ZeroAddress",
      "inputs": []
    },
    {
      "type": "error",
      "name": "ZeroAmount",
      "inputs": []
    }
  ],
  "bytecode": {
    "object": "0x60a0604052348015600e575f5ffd5b506040516112ac3803806112ac833981016040819052602b916063565b806001600160a01b03811660525760405163d92e233d60e01b815260040160405180910390fd5b6001600160a01b031660805250608e565b5f602082840312156072575f5ffd5b81516001600160a01b03811681146087575f5ffd5b9392505050565b6080516112066100a65f395f61016301526112065ff3fe608060405260043610610078575f3560e01c806386f644f01161004c57806386f644f01461013f578063ad5c464814610152578063d5bcb61014610185578063ebc27b08146101ac575f5ffd5b80628fbb481461007c5780634430bcc3146100c7578063538ba4f9146100e85780637369a22e14610120575b5f5ffd5b348015610087575f5ffd5b506100b2610096366004611070565b5f60208181529281526040808220909352908152205460ff1681565b60405190151581526020015b60405180910390f35b6100da6100d5366004611070565b6101cb565b6040519081526020016100be565b3480156100f3575f5ffd5b506100fb5f81565b60405173ffffffffffffffffffffffffffffffffffffffff90911681526020016100be565b34801561012b575f5ffd5b506100da61013a3660046110a1565b610318565b6100da61014d3660046110e1565b6104ef565b34801561015d575f5ffd5b506100fb7f000000000000000000000000000000000000000000000000000000000000000081565b348015610190575f5ffd5b506100fb73eeeeeeeeeeeeeeeeeeeeeeeeeeeeeeeeeeeeeeee81565b3480156101b7575f5ffd5b506100da6101c6366004611129565b6106ee565b5f345f03610205576040517f1f2a200500000000000000000000000000000000000000000000000000000000815260040160405180910390fd5b8273ffffffffffffffffffffffffffffffffffffffff16631249c58b346040518263ffffffff1660e01b81526004015f604051808303818588803b15801561024b575f5ffd5b505af115801561025d573d5f5f3e3d5ffd5b505050505061026e83835f19610a68565b47801561030d575f8373ffffffffffffffffffffffffffffffffffffffff16826040515f6040518083038185875af1925050503d805f81146102cb576040519150601f19603f3d011682016040523d82523d5f602084013e6102d0565b606091505b505090508061030b576040517f90b8ec1800000000000000000000000000000000000000000000000000000000815260040160405180910390fd5b505b5f9150505b92915050565b5f5f6103248430610b27565b9050805f0361035f576040517f1f2a200500000000000000000000000000000000000000000000000000000000815260040160405180910390fd5b6103698486610c2c565b6040517fa0712d680000000000000000000000000000000000000000000000000000000081526004810182905273ffffffffffffffffffffffffffffffffffffffff86169063a0712d68906024016020604051808303815f875af11580156103d3573d5f5f3e3d5ffd5b505050506040513d601f19601f820116820180604052508101906103f79190611181565b91508115610439576040517fac55121f000000000000000000000000000000000000000000000000000000008152600481018390526024015b60405180910390fd5b6040517f70a082310000000000000000000000000000000000000000000000000000000081523060048201525f9073ffffffffffffffffffffffffffffffffffffffff8616906370a0823190602401602060405180830381865afa1580156104a3573d5f5f3e3d5ffd5b505050506040513d601f19601f820116820180604052508101906104c79190611181565b905080156104da576104da858583610a68565b6104e686855f19610a68565b50509392505050565b5f345f03610529576040517f1f2a200500000000000000000000000000000000000000000000000000000000815260040160405180910390fd5b3073ffffffffffffffffffffffffffffffffffffffff851603610578576040517fda431a6f00000000000000000000000000000000000000000000000000000000815260040160405180910390fd5b6040517f17bfdfbc00000000000000000000000000000000000000000000000000000000815273ffffffffffffffffffffffffffffffffffffffff858116600483015247915f918816906317bfdfbc906024016020604051808303815f875af11580156105e7573d5f5f3e3d5ffd5b505050506040513d601f19601f8201168201806040525081019061060b9190611181565b90505f5f19850361062c578183101561062557508161064d565b508061064d565b8483101561063b57508161064d565b818511610648578461064a565b815b90505b6040517fe597461900000000000000000000000000000000000000000000000000000000815273ffffffffffffffffffffffffffffffffffffffff888116600483015289169063e59746199083906024015f604051808303818588803b1580156106b5575f5ffd5b505af11580156106c7573d5f5f3e3d5ffd5b5047935050821591506106e09050576106e08782610ccc565b505f98975050505050505050565b5f3073ffffffffffffffffffffffffffffffffffffffff85160361073e576040517fda431a6f00000000000000000000000000000000000000000000000000000000815260040160405180910390fd5b6040517f70a082310000000000000000000000000000000000000000000000000000000081523060048201525f9073ffffffffffffffffffffffffffffffffffffffff8716906370a0823190602401602060405180830381865afa1580156107a8573d5f5f3e3d5ffd5b505050506040513d601f19601f820116820180604052508101906107cc9190611181565b9050805f03610807576040517f1f2a200500000000000000000000000000000000000000000000000000000000815260040160405180910390fd5b6040517f17bfdfbc00000000000000000000000000000000000000000000000000000000815273ffffffffffffffffffffffffffffffffffffffff86811660048301525f91908916906317bfdfbc906024016020604051808303815f875af1158015610875573d5f5f3e3d5ffd5b505050506040513d601f19601f820116820180604052508101906108999190611181565b90506108a58789610c2c565b5f5f1985036108c457818310156108bd5750816108e5565b50806108e5565b848310156108d35750816108e5565b8185116108e057846108e2565b815b90505b6040517f2608f81800000000000000000000000000000000000000000000000000000000815273ffffffffffffffffffffffffffffffffffffffff8881166004830152602482018390528a1690632608f818906044016020604051808303815f875af1158015610957573d5f5f3e3d5ffd5b505050506040513d601f19601f8201168201806040525081019061097b9190611181565b935083156109b8576040517f0bc884f200000000000000000000000000000000000000000000000000000000815260048101859052602401610430565b6040517f70a082310000000000000000000000000000000000000000000000000000000081523060048201525f9073ffffffffffffffffffffffffffffffffffffffff8a16906370a0823190602401602060405180830381865afa158015610a22573d5f5f3e3d5ffd5b505050506040513d601f19601f82011682018060405250810190610a469190611181565b90508015610a5957610a59898883610a68565b505f9998505050505050505050565b8015610b22575f198103610b17576040517f70a082310000000000000000000000000000000000000000000000000000000081523060048201525f9073ffffffffffffffffffffffffffffffffffffffff8516906370a0823190602401602060405180830381865afa158015610ae0573d5f5f3e3d5ffd5b505050506040513d601f19601f82011682018060405250810190610b049190611181565b9050610b11848483610d4e565b50505050565b610b22838383610d4e565b505050565b5f73ffffffffffffffffffffffffffffffffffffffff83161580610b74575073ffffffffffffffffffffffffffffffffffffffff831673eeeeeeeeeeeeeeeeeeeeeeeeeeeeeeeeeeeeeeee145b15610b97575073ffffffffffffffffffffffffffffffffffffffff811631610312565b6040517f70a0823100000000000000000000000000000000000000000000000000000000815273ffffffffffffffffffffffffffffffffffffffff83811660048301528416906370a0823190602401602060405180830381865afa158015610c01573d5f5f3e3d5ffd5b505050506040513d601f19601f82011682018060405250810190610c259190611181565b9392505050565b73ffffffffffffffffffffffffffffffffffffffff8083165f908152602081815260408083209385168352929052205460ff16610cc857610c6f82825f19610dcf565b73ffffffffffffffffffffffffffffffffffffffff8083165f9081526020818152604080832093851683529290522080547fffffffffffffffffffffffffffffffffffffffffffffffffffffffffffffff001660011790555b5050565b5f81118015610cdb5750804710155b15610cc8575f5f8373ffffffffffffffffffffffffffffffffffffffff16836040515f6040518083038185875af1925050503d805f8114610d37576040519150601f19603f3d011682016040523d82523d5f602084013e610d3c565b606091505b509150915081610b1157805160208201fd5b60405173ffffffffffffffffffffffffffffffffffffffff838116602483015260448201839052610b2291859182169063a9059cbb906064015b604051602081830303815290604052915060e01b6020820180517bffffffffffffffffffffffffffffffffffffffffffffffffffffffff8381831617835250505050610e7c565b6040517fdd62ed3e00000000000000000000000000000000000000000000000000000000815230600482015273ffffffffffffffffffffffffffffffffffffffff83811660248301525f919085169063dd62ed3e90604401602060405180830381865afa158015610e42573d5f5f3e3d5ffd5b505050506040513d601f19601f82011682018060405250810190610e669190611181565b9050610b118484610e778585611198565b610f1b565b5f5f60205f8451602086015f885af180610e9b576040513d5f823e3d81fd5b50505f513d91508115610eb2578060011415610ecc565b73ffffffffffffffffffffffffffffffffffffffff84163b155b15610b11576040517f5274afe700000000000000000000000000000000000000000000000000000000815273ffffffffffffffffffffffffffffffffffffffff85166004820152602401610430565b6040805173ffffffffffffffffffffffffffffffffffffffff8416602482015260448082018490528251808303909101815260649091019091526020810180517bffffffffffffffffffffffffffffffffffffffffffffffffffffffff167f095ea7b300000000000000000000000000000000000000000000000000000000179052610fa78482610ff2565b610b115760405173ffffffffffffffffffffffffffffffffffffffff84811660248301525f6044830152610fe891869182169063095ea7b390606401610d88565b610b118482610e7c565b5f5f5f5f60205f8651602088015f8a5af192503d91505f51905082801561103e57508115611023578060011461103e565b5f8673ffffffffffffffffffffffffffffffffffffffff163b115b9695505050505050565b803573ffffffffffffffffffffffffffffffffffffffff8116811461106b575f5ffd5b919050565b5f5f60408385031215611081575f5ffd5b61108a83611048565b915061109860208401611048565b90509250929050565b5f5f5f606084860312156110b3575f5ffd5b6110bc84611048565b92506110ca60208501611048565b91506110d860408501611048565b90509250925092565b5f5f5f5f608085870312156110f4575f5ffd5b6110fd85611048565b935061110b60208601611048565b925061111960408601611048565b9396929550929360600135925050565b5f5f5f5f5f60a0868803121561113d575f5ffd5b61114686611048565b945061115460208701611048565b935061116260408701611048565b925061117060608701611048565b949793965091946080013592915050565b5f60208284031215611191575f5ffd5b5051919050565b80820180821115610312577f4e487b71000000000000000000000000000000000000000000000000000000005f52601160045260245ffdfea2646970667358221220b5d972fc81a7dad51014b66cc441925f036a56f479c70fd001ad33c54d619f2064736f6c634300081c0033",
    "linkReferences": {}
  },
  "methodIdentifiers": {
    "NATIVE_ADDRESS()": "d5bcb610",
    "WETH()": "ad5c4648",
    "ZERO_ADDRESS()": "538ba4f9",
    "isApprovedAddress(address,address)": "008fbb48",
    "repay(address,address,address,address,uint256)": "ebc27b08",
    "repayNative(address,address,address,uint256)": "86f644f0",
    "supply(address,address,address)": "7369a22e",
    "supplyNative(address,address)": "4430bcc3"
  },
  "id": 7
}