{
  "abi": [
    {
      "type": "constructor",
      "inputs": [
        {
          "name": "entryPoint_",
          "type": "address",
          "internalType": "contract IEntryPoint"
        }
      ],
      "stateMutability": "nonpayable"
    },
    {
      "type": "receive",
      "stateMutability": "payable"
    },
    {
      "type": "function",
      "name": "addDeposit",
      "inputs": [],
      "outputs": [],
      "stateMutability": "payable"
    },
    {
      "type": "function",
      "name": "eip712Domain",
      "inputs": [],
      "outputs": [
        {
          "name": "fields",
          "type": "bytes1",
          "internalType": "bytes1"
        },
        {
          "name": "name",
          "type": "string",
          "internalType": "string"
        },
        {
          "name": "version",
          "type": "string",
          "internalType": "string"
        },
        {
          "name": "chainId",
          "type": "uint256",
          "internalType": "uint256"
        },
        {
          "name": "verifyingContract",
          "type": "address",
          "internalType": "address"
        },
        {
          "name": "salt",
          "type": "bytes32",
          "internalType": "bytes32"
        },
        {
          "name": "extensions",
          "type": "uint256[]",
          "internalType": "uint256[]"
        }
      ],
      "stateMutability": "view"
    },
    {
      "type": "function",
      "name": "entryPoint",
      "inputs": [],
      "outputs": [
        {
          "name": "",
          "type": "address",
          "internalType": "contract IEntryPoint"
        }
      ],
      "stateMutability": "view"
    },
    {
      "type": "function",
      "name": "execute",
      "inputs": [
        {
          "name": "dest",
          "type": "address",
          "internalType": "address"
        },
        {
          "name": "value",
          "type": "uint256",
          "internalType": "uint256"
        },
        {
          "name": "func",
          "type": "bytes",
          "internalType": "bytes"
        }
      ],
      "outputs": [],
      "stateMutability": "nonpayable"
    },
    {
      "type": "function",
      "name": "executeBatch",
      "inputs": [
        {
          "name": "dest",
          "type": "address[]",
          "internalType": "address[]"
        },
        {
          "name": "func",
          "type": "bytes[]",
          "internalType": "bytes[]"
        }
      ],
      "outputs": [],
      "stateMutability": "nonpayable"
    },
    {
      "type": "function",
      "name": "executeBatch",
      "inputs": [
        {
          "name": "dest",
          "type": "address[]",
          "internalType": "address[]"
        },
        {
          "name": "value",
          "type": "uint256[]",
          "internalType": "uint256[]"
        },
        {
          "name": "func",
          "type": "bytes[]",
          "internalType": "bytes[]"
        }
      ],
      "outputs": [],
      "stateMutability": "nonpayable"
    },
    {
      "type": "function",
      "name": "getDeposit",
      "inputs": [],
      "outputs": [
        {
          "name": "",
          "type": "uint256",
          "internalType": "uint256"
        }
      ],
      "stateMutability": "view"
    },
    {
      "type": "function",
      "name": "getMessageHash",
      "inputs": [
        {
          "name": "message",
          "type": "bytes",
          "internalType": "bytes"
        }
      ],
      "outputs": [
        {
          "name": "",
          "type": "bytes32",
          "internalType": "bytes32"
        }
      ],
      "stateMutability": "view"
    },
    {
      "type": "function",
      "name": "getNonce",
      "inputs": [],
      "outputs": [
        {
          "name": "",
          "type": "uint256",
          "internalType": "uint256"
        }
      ],
      "stateMutability": "view"
    },
    {
      "type": "function",
      "name": "initialize",
      "inputs": [
        {
          "name": "owner_",
          "type": "address",
          "internalType": "address"
        }
      ],
      "outputs": [],
      "stateMutability": "nonpayable"
    },
    {
      "type": "function",
      "name": "isValidSignature",
      "inputs": [
        {
          "name": "hash",
          "type": "bytes32",
          "internalType": "bytes32"
        },
        {
          "name": "signature",
          "type": "bytes",
          "internalType": "bytes"
        }
      ],
      "outputs": [
        {
          "name": "",
          "type": "bytes4",
          "internalType": "bytes4"
        }
      ],
      "stateMutability": "view"
    },
    {
      "type": "function",
      "name": "onERC1155BatchReceived",
      "inputs": [
        {
          "name": "",
          "type": "address",
          "internalType": "address"
        },
        {
          "name": "",
          "type": "address",
          "internalType": "address"
        },
        {
          "name": "",
          "type": "uint256[]",
          "internalType": "uint256[]"
        },
        {
          "name": "",
          "type": "uint256[]",
          "internalType": "uint256[]"
        },
        {
          "name": "",
          "type": "bytes",
          "internalType": "bytes"
        }
      ],
      "outputs": [
        {
          "name": "",
          "type": "bytes4",
          "internalType": "bytes4"
        }
      ],
      "stateMutability": "pure"
    },
    {
      "type": "function",
      "name": "onERC1155Received",
      "inputs": [
        {
          "name": "",
          "type": "address",
          "internalType": "address"
        },
        {
          "name": "",
          "type": "address",
          "internalType": "address"
        },
        {
          "name": "",
          "type": "uint256",
          "internalType": "uint256"
        },
        {
          "name": "",
          "type": "uint256",
          "internalType": "uint256"
        },
        {
          "name": "",
          "type": "bytes",
          "internalType": "bytes"
        }
      ],
      "outputs": [
        {
          "name": "",
          "type": "bytes4",
          "internalType": "bytes4"
        }
      ],
      "stateMutability": "pure"
    },
    {
      "type": "function",
      "name": "onERC721Received",
      "inputs": [
        {
          "name": "",
          "type": "address",
          "internalType": "address"
        },
        {
          "name": "",
          "type": "address",
          "internalType": "address"
        },
        {
          "name": "",
          "type": "uint256",
          "internalType": "uint256"
        },
        {
          "name": "",
          "type": "bytes",
          "internalType": "bytes"
        }
      ],
      "outputs": [
        {
          "name": "",
          "type": "bytes4",
          "internalType": "bytes4"
        }
      ],
      "stateMutability": "pure"
    },
    {
      "type": "function",
      "name": "owner",
      "inputs": [],
      "outputs": [
        {
          "name": "",
          "type": "address",
          "internalType": "address"
        }
      ],
      "stateMutability": "view"
    },
    {
      "type": "function",
      "name": "performCreate",
      "inputs": [
        {
          "name": "value",
          "type": "uint256",
          "internalType": "uint256"
        },
        {
          "name": "initCode",
          "type": "bytes",
          "internalType": "bytes"
        }
      ],
      "outputs": [
        {
          "name": "createdAddr",
          "type": "address",
          "internalType": "address"
        }
      ],
      "stateMutability": "payable"
    },
    {
      "type": "function",
      "name": "performCreate2",
      "inputs": [
        {
          "name": "value",
          "type": "uint256",
          "internalType": "uint256"
        },
        {
          "name": "initCode",
          "type": "bytes",
          "internalType": "bytes"
        },
        {
          "name": "salt",
          "type": "bytes32",
          "internalType": "bytes32"
        }
      ],
      "outputs": [
        {
          "name": "createdAddr",
          "type": "address",
          "internalType": "address"
        }
      ],
      "stateMutability": "payable"
    },
    {
      "type": "function",
      "name": "supportsInterface",
      "inputs": [
        {
          "name": "interfaceId",
          "type": "bytes4",
          "internalType": "bytes4"
        }
      ],
      "outputs": [
        {
          "name": "",
          "type": "bool",
          "internalType": "bool"
        }
      ],
      "stateMutability": "view"
    },
    {
      "type": "function",
      "name": "transferOwnership",
      "inputs": [
        {
          "name": "newOwner",
          "type": "address",
          "internalType": "address"
        }
      ],
      "outputs": [],
      "stateMutability": "nonpayable"
    },
    {
      "type": "function",
      "name": "validateUserOp",
      "inputs": [
        {
          "name": "userOp",
          "type": "tuple",
          "internalType": "struct PackedUserOperation",
          "components": [
            {
              "name": "sender",
              "type": "address",
              "internalType": "address"
            },
            {
              "name": "nonce",
              "type": "uint256",
              "internalType": "uint256"
            },
            {
              "name": "initCode",
              "type": "bytes",
              "internalType": "bytes"
            },
            {
              "name": "callData",
              "type": "bytes",
              "internalType": "bytes"
            },
            {
              "name": "accountGasLimits",
              "type": "bytes32",
              "internalType": "bytes32"
            },
            {
              "name": "preVerificationGas",
              "type": "uint256",
              "internalType": "uint256"
            },
            {
              "name": "gasFees",
              "type": "bytes32",
              "internalType": "bytes32"
            },
            {
              "name": "paymasterAndData",
              "type": "bytes",
              "internalType": "bytes"
            },
            {
              "name": "signature",
              "type": "bytes",
              "internalType": "bytes"
            }
          ]
        },
        {
          "name": "userOpHash",
          "type": "bytes32",
          "internalType": "bytes32"
        },
        {
          "name": "missingAccountFunds",
          "type": "uint256",
          "internalType": "uint256"
        }
      ],
      "outputs": [
        {
          "name": "validationData",
          "type": "uint256",
          "internalType": "uint256"
        }
      ],
      "stateMutability": "nonpayable"
    },
    {
      "type": "function",
      "name": "withdrawDepositTo",
      "inputs": [
        {
          "name": "withdrawAddress",
          "type": "address",
          "internalType": "address payable"
        },
        {
          "name": "amount",
          "type": "uint256",
          "internalType": "uint256"
        }
      ],
      "outputs": [],
      "stateMutability": "nonpayable"
    },
    {
      "type": "event",
      "name": "Initialized",
      "inputs": [
        {
          "name": "version",
          "type": "uint64",
          "indexed": false,
          "internalType": "uint64"
        }
      ],
      "anonymous": false
    },
    {
      "type": "event",
      "name": "LightAccountInitialized",
      "inputs": [
        {
          "name": "entryPoint",
          "type": "address",
          "indexed": true,
          "internalType": "contract IEntryPoint"
        },
        {
          "name": "owner",
          "type": "address",
          "indexed": true,
          "internalType": "address"
        }
      ],
      "anonymous": false
    },
    {
      "type": "event",
      "name": "OwnershipTransferred",
      "inputs": [
        {
          "name": "previousOwner",
          "type": "address",
          "indexed": true,
          "internalType": "address"
        },
        {
          "name": "newOwner",
          "type": "address",
          "indexed": true,
          "internalType": "address"
        }
      ],
      "anonymous": false
    },
    {
      "type": "error",
      "name": "ArrayLengthMismatch",
      "inputs": []
    },
    {
      "type": "error",
      "name": "CreateFailed",
      "inputs": []
    },
    {
      "type": "error",
      "name": "ECDSAInvalidSignature",
      "inputs": []
    },
    {
      "type": "error",
      "name": "ECDSAInvalidSignatureLength",
      "inputs": [
        {
          "name": "length",
          "type": "uint256",
          "internalType": "uint256"
        }
      ]
    },
    {
      "type": "error",
      "name": "ECDSAInvalidSignatureS",
      "inputs": [
        {
          "name": "s",
          "type": "bytes32",
          "internalType": "bytes32"
        }
      ]
    },
    {
      "type": "error",
      "name": "InvalidInitialization",
      "inputs": []
    },
    {
      "type": "error",
      "name": "InvalidOwner",
      "inputs": [
        {
          "name": "owner",
          "type": "address",
          "internalType": "address"
        }
      ]
    },
    {
      "type": "error",
      "name": "InvalidSignatureType",
      "inputs": []
    },
    {
      "type": "error",
      "name": "Locked",
      "inputs": []
    },
    {
      "type": "error",
      "name": "NotAuthorized",
      "inputs": [
        {
          "name": "caller",
          "type": "address",
          "internalType": "address"
        }
      ]
    },
    {
      "type": "error",
      "name": "NotInitializing",
      "inputs": []
    },
    {
      "type": "error",
      "name": "ZeroAddressNotAllowed",
      "inputs": []
    }
  ],
  "bytecode": {
    "object": "0x610160604052348015610010575f5ffd5b506040516127a93803806127a983398101604081905261002f916101be565b306080524660a0527f5886a89854f64cffde2e739819f75451c42a85563516fe8eab2ef059d7e9f52660608061009c604080518082018252600c81526b119b185cda1058d8dbdd5b9d60a21b602080830191909152825180840190935260018352603160f81b9083015291565b815160209283012081519183019190912060c082905260e0819052604080517f8b73c3c69bb8fe3d512ecc4cf759cc79239f7b179b0ffacaa9a75d522b39400f8152938401929092529082015246606082015230608082015260a09020610100525050610140526001600160a01b0381166101205261011961011f565b506101eb565b5f61012a6101405190565b805490915068010000000000000000900460ff161561015c5760405163f92ee8a960e01b815260040160405180910390fd5b80546001600160401b03908116146101bb5780546001600160401b0319166001600160401b0390811782556040519081527fc7f505b2f371ae2175ee4913f4499e1f2633a7b5936321eed1cdaeb6115181d29060200160405180910390a15b50565b5f602082840312156101ce575f5ffd5b81516001600160a01b03811681146101e4575f5ffd5b9392505050565b60805160a05160c05160e05161010051610120516101405161253c61026d5f395f610da101525f81816103b40152818161099401528181610b0501528181610d3001528181610f68015281816112bd0152818161137101526116ca01525f61103901525f6110f301525f6110cd01525f61107d01525f61105a015261253c5ff3fe608060405260043610610165575f3560e01c80634d44560d116100c6578063bc197c811161007c578063d087d28811610057578063d087d28814610471578063f23a6e6114610485578063f2fde38b146104ca575f5ffd5b8063bc197c81146103f7578063c399ec881461043e578063c4d66de814610452575f5ffd5b80638da5cb5b116100ac5780638da5cb5b1461035d578063b0d691fe146103a6578063b61d27f6146103d8575f5ffd5b80634d44560d1461031757806384b0196e14610336575f5ffd5b806319822f7c1161011b5780634847be6f116101015780634847be6f146102c45780634a58db19146102fc5780634c8c9ea114610304575f5ffd5b806319822f7c1461028657806347e1da2a146102a5575f5ffd5b8063150b7a021161014b578063150b7a02146101d15780631626ba7e1461024657806318dfb3c714610265575f5ffd5b806301ffc9a7146101705780630a1028c4146101a4575f5ffd5b3661016c57005b5f5ffd5b34801561017b575f5ffd5b5061018f61018a366004611d0b565b6104e9565b60405190151581526020015b60405180910390f35b3480156101af575f5ffd5b506101c36101be366004611d77565b6105cd565b60405190815260200161019b565b3480156101dc575f5ffd5b506102156101eb366004611e91565b7f150b7a020000000000000000000000000000000000000000000000000000000095945050505050565b6040517fffffffff00000000000000000000000000000000000000000000000000000000909116815260200161019b565b348015610251575f5ffd5b50610215610260366004611eff565b61063a565b348015610270575f5ffd5b5061028461027f366004611f88565b6106c4565b005b348015610291575f5ffd5b506101c36102a0366004611ff4565b6107f0565b3480156102b0575f5ffd5b506102846102bf366004612043565b61080e565b6102d76102d23660046120e2565b610916565b60405173ffffffffffffffffffffffffffffffffffffffff909116815260200161019b565b610284610992565b6102d7610312366004611eff565b610a34565b348015610322575f5ffd5b50610284610331366004612131565b610aae565b348015610341575f5ffd5b5061034a610bad565b60405161019b9796959493929190612189565b348015610368575f5ffd5b507ffe43cac86d2632475e173babfc884cd7f9ce21169af8b16db096c27563e34c095473ffffffffffffffffffffffffffffffffffffffff166102d7565b3480156103b1575f5ffd5b507f00000000000000000000000000000000000000000000000000000000000000006102d7565b3480156103e3575f5ffd5b506102846103f2366004612248565b610c55565b348015610402575f5ffd5b50610215610411366004612294565b7fbc197c810000000000000000000000000000000000000000000000000000000098975050505050505050565b348015610449575f5ffd5b506101c3610ceb565b34801561045d575f5ffd5b5061028461046c366004612357565b610d9f565b34801561047c575f5ffd5b506101c3610f1c565b348015610490575f5ffd5b5061021561049f366004612372565b7ff23a6e61000000000000000000000000000000000000000000000000000000009695505050505050565b3480156104d5575f5ffd5b506102846104e4366004612357565b610f97565b5f7fffffffff0000000000000000000000000000000000000000000000000000000082167f150b7a0200000000000000000000000000000000000000000000000000000000148061057b57507fffffffff0000000000000000000000000000000000000000000000000000000082167f4e2312e000000000000000000000000000000000000000000000000000000000145b806105c757507fffffffff0000000000000000000000000000000000000000000000000000000082167f01ffc9a700000000000000000000000000000000000000000000000000000000145b92915050565b5f5f7f5e3baca2936049843f06038876a12f03627b5edc98025751ecf2ac75626401998380519060200120604051602001610612929190918252602082015260400190565b60405160208183030381529060405280519060200120905061063381611037565b9392505050565b5f61066f6106688560405160200161065491815260200190565b6040516020818303038152906040526105cd565b848461114d565b1561069b57507f1626ba7e00000000000000000000000000000000000000000000000000000000610633565b507fffffffff000000000000000000000000000000000000000000000000000000009392505050565b6106cc6112a5565b60027f3c25485dd7fcb5b79c6e101a51e4ac1d265adde8f4b2805851861db54821825d55828114610729576040517fa24a13a600000000000000000000000000000000000000000000000000000000815260040160405180910390fd5b825f5b818110156107c4576107bc868683818110610749576107496123d7565b905060200201602081019061075e9190612357565b5f868685818110610771576107716123d7565b90506020028101906107839190612404565b8080601f0160208091040260200160405190810160405280939291908181526020018383808284375f9201919091525061133792505050565b60010161072c565b505060017f3c25485dd7fcb5b79c6e101a51e4ac1d265adde8f4b2805851861db54821825d5550505050565b5f6107f9611359565b61080384846113f8565b9050610633826115a9565b6108166112a5565b60027f3c25485dd7fcb5b79c6e101a51e4ac1d265adde8f4b2805851861db54821825d5584811415806108495750848314155b15610880576040517fa24a13a600000000000000000000000000000000000000000000000000000000815260040160405180910390fd5b845f5b818110156108e8576108e08888838181106108a0576108a06123d7565b90506020020160208101906108b59190612357565b8787848181106108c7576108c76123d7565b90506020020135868685818110610771576107716123d7565b600101610883565b505060017f3c25485dd7fcb5b79c6e101a51e4ac1d265adde8f4b2805851861db54821825d55505050505050565b5f61091f6112a5565b60027f3c25485dd7fcb5b79c6e101a51e4ac1d265adde8f4b2805851861db54821825d55604051838086833783818389f5925050508061096657637e16b8cd5f526004601cfd5b60017f3c25485dd7fcb5b79c6e101a51e4ac1d265adde8f4b2805851861db54821825d55949350505050565b7f00000000000000000000000000000000000000000000000000000000000000006040517fb760faf900000000000000000000000000000000000000000000000000000000815230600482015273ffffffffffffffffffffffffffffffffffffffff919091169063b760faf99034906024015f604051808303818588803b158015610a1b575f5ffd5b505af1158015610a2d573d5f5f3e3d5ffd5b5050505050565b5f610a3d6112a5565b60027f3c25485dd7fcb5b79c6e101a51e4ac1d265adde8f4b2805851861db54821825d556040518280858337808287f09250505080610a8357637e16b8cd5f526004601cfd5b60017f3c25485dd7fcb5b79c6e101a51e4ac1d265adde8f4b2805851861db54821825d559392505050565b610ab66112a5565b73ffffffffffffffffffffffffffffffffffffffff8216610b03576040517f8579befe00000000000000000000000000000000000000000000000000000000815260040160405180910390fd5b7f00000000000000000000000000000000000000000000000000000000000000006040517f205c287800000000000000000000000000000000000000000000000000000000815273ffffffffffffffffffffffffffffffffffffffff848116600483015260248201849052919091169063205c2878906044015f604051808303815f87803b158015610b93575f5ffd5b505af1158015610ba5573d5f5f3e3d5ffd5b505050505050565b7f0f000000000000000000000000000000000000000000000000000000000000006060805f808083610c43604080518082018252600c81527f466c6173684163636f756e7400000000000000000000000000000000000000006020808301919091528251808401909352600183527f31000000000000000000000000000000000000000000000000000000000000009083015291565b97989097965046955030945091925090565b610c5d6112a5565b60027f3c25485dd7fcb5b79c6e101a51e4ac1d265adde8f4b2805851861db54821825d55610cc1848484848080601f0160208091040260200160405190810160405280939291908181526020018383808284375f9201919091525061133792505050565b60017f3c25485dd7fcb5b79c6e101a51e4ac1d265adde8f4b2805851861db54821825d5550505050565b6040517f70a082310000000000000000000000000000000000000000000000000000000081523060048201525f9073ffffffffffffffffffffffffffffffffffffffff7f000000000000000000000000000000000000000000000000000000000000000016906370a08231906024015b602060405180830381865afa158015610d76573d5f5f3e3d5ffd5b505050506040513d601f19601f82011682018060405250810190610d9a9190612465565b905090565b7f0000000000000000000000000000000000000000000000000000000000000000805468010000000000000000810460ff16159067ffffffffffffffff165f81158015610de95750825b90505f8267ffffffffffffffff166001148015610e055750303b155b905081158015610e13575080155b15610e4a576040517ff92ee8a900000000000000000000000000000000000000000000000000000000815260040160405180910390fd5b84547fffffffffffffffffffffffffffffffffffffffffffffffff00000000000000001660011785558315610eab5784547fffffffffffffffffffffffffffffffffffffffffffffff00ffffffffffffffff16680100000000000000001785555b610eb486611611565b8315610ba55784547fffffffffffffffffffffffffffffffffffffffffffffff00ffffffffffffffff168555604051600181527fc7f505b2f371ae2175ee4913f4499e1f2633a7b5936321eed1cdaeb6115181d29060200160405180910390a1505050505050565b6040517f35567e1a0000000000000000000000000000000000000000000000000000000081523060048201525f602482018190529073ffffffffffffffffffffffffffffffffffffffff7f000000000000000000000000000000000000000000000000000000000000000016906335567e1a90604401610d5b565b610f9f6112a5565b73ffffffffffffffffffffffffffffffffffffffff81161580610fd7575073ffffffffffffffffffffffffffffffffffffffff811630145b1561102b576040517fb20f76e300000000000000000000000000000000000000000000000000000000815273ffffffffffffffffffffffffffffffffffffffff821660048201526024015b60405180910390fd5b61103481611755565b50565b7f00000000000000000000000000000000000000000000000000000000000000007f000000000000000000000000000000000000000000000000000000000000000030147f000000000000000000000000000000000000000000000000000000000000000046141661112a5750604080517f8b73c3c69bb8fe3d512ecc4cf759cc79239f7b179b0ffacaa9a75d522b39400f81527f000000000000000000000000000000000000000000000000000000000000000060208201527f00000000000000000000000000000000000000000000000000000000000000009181019190915246606082015230608082015260a090205b6719010000000000005f5280601a5281603a52604260182090505f603a52919050565b5f6001821015611189576040517f60cd402d00000000000000000000000000000000000000000000000000000000815260040160405180910390fd5b5f83835f81811061119c5761119c6123d7565b919091013560f81c91508190506111ff576111f7856111be85600181896124a9565b8080601f0160208091040260200160405190810160405280939291908181526020018383808284375f9201919091525061185692505050565b915050610633565b7fffffffffffffffffffffffffffffffffffffffffffffffffffffffffffffffff60ff821601611273576111f78561123a85600181896124a9565b8080601f0160208091040260200160405190810160405280939291908181526020018383808284375f920191909152506118c492505050565b6040517f60cd402d00000000000000000000000000000000000000000000000000000000815260040160405180910390fd5b3373ffffffffffffffffffffffffffffffffffffffff7f000000000000000000000000000000000000000000000000000000000000000016148015906112eb5750333014155b80156112fc57506112fa61190d565b155b15611335576040517f4a0bfec1000000000000000000000000000000000000000000000000000000008152336004820152602401611022565b565b5f5f82516020840185875af180611353576040513d5f823e3d81fd5b50505050565b3373ffffffffffffffffffffffffffffffffffffffff7f00000000000000000000000000000000000000000000000000000000000000001614611335576040517f08c379a000000000000000000000000000000000000000000000000000000000815260206004820152601c60248201527f6163636f756e743a206e6f742066726f6d20456e747279506f696e74000000006044820152606401611022565b5f6001611409610100850185612404565b90501015611443576040517f60cd402d00000000000000000000000000000000000000000000000000000000815260040160405180910390fd5b5f611452610100850185612404565b5f818110611462576114626123d7565b919091013560f81c9150819050611513577f19457468657265756d205369676e6564204d6573736167653a0a3332000000005f908152601c849052603c8120906114b0610100870187612404565b6114be9160019082906124a9565b8080601f0160208091040260200160405190810160405280939291908181526020018383808284375f920191909152509293506115099250611504915084905083611856565b61197f565b93505050506105c7565b7fffffffffffffffffffffffffffffffffffffffffffffffffffffffffffffffff60ff821601611273575f61154c610100860186612404565b61155a9160019082906124a9565b8080601f0160208091040260200160405190810160405280939291908181526020018383808284375f920191909152509293506115a092506115049150869050836118c4565b95945050505050565b8015611034576040515f9033907fffffffffffffffffffffffffffffffffffffffffffffffffffffffffffffffff90849084818181858888f193505050503d805f8114610a2d576040519150601f19603f3d011682016040523d82523d5f602084013e610a2d565b73ffffffffffffffffffffffffffffffffffffffff8116611660576040517fb20f76e30000000000000000000000000000000000000000000000000000000081525f6004820152602401611022565b807ffe43cac86d2632475e173babfc884cd7f9ce21169af8b16db096c27563e34c0980547fffffffffffffffffffffffff00000000000000000000000000000000000000001673ffffffffffffffffffffffffffffffffffffffff928316179055604051828216917f000000000000000000000000000000000000000000000000000000000000000016907fec6a23b49d2c363d250c9dda15610e835d428207d15ddb36a6c230e37371ddf1905f90a360405173ffffffffffffffffffffffffffffffffffffffff8216905f907f8be0079c531659141344cd1fd0a4f28419497f9722a3daafe3b4186f6b6457e0908290a350565b7ffe43cac86d2632475e173babfc884cd7f9ce21169af8b16db096c27563e34c09805473ffffffffffffffffffffffffffffffffffffffff9081169083168190036117e4576040517fb20f76e300000000000000000000000000000000000000000000000000000000815273ffffffffffffffffffffffffffffffffffffffff84166004820152602401611022565b81547fffffffffffffffffffffffff00000000000000000000000000000000000000001673ffffffffffffffffffffffffffffffffffffffff8481169182178455604051908316907f8be0079c531659141344cd1fd0a4f28419497f9722a3daafe3b4186f6b6457e0905f90a3505050565b5f806118628484611993565b90506118a27ffe43cac86d2632475e173babfc884cd7f9ce21169af8b16db096c27563e34c095473ffffffffffffffffffffffffffffffffffffffff1690565b73ffffffffffffffffffffffffffffffffffffffff9182169116149392505050565b5f6106336119067ffe43cac86d2632475e173babfc884cd7f9ce21169af8b16db096c27563e34c095473ffffffffffffffffffffffffffffffffffffffff1690565b84846119bb565b5f61194c7ffe43cac86d2632475e173babfc884cd7f9ce21169af8b16db096c27563e34c095473ffffffffffffffffffffffffffffffffffffffff1690565b73ffffffffffffffffffffffffffffffffffffffff163373ffffffffffffffffffffffffffffffffffffffff1614905090565b5f8161198c5760016105c7565b5f92915050565b5f5f5f5f6119a18686611ae6565b9250925092506119b18282611b2f565b5090949350505050565b5f5f5f8573ffffffffffffffffffffffffffffffffffffffff1685856040516024016119e89291906124d0565b60408051601f198184030181529181526020820180517bffffffffffffffffffffffffffffffffffffffffffffffffffffffff167f1626ba7e0000000000000000000000000000000000000000000000000000000017905251611a4b91906124f0565b5f60405180830381855afa9150503d805f8114611a83576040519150601f19603f3d011682016040523d82523d5f602084013e611a88565b606091505b5091509150818015611a9c57506020815110155b8015611adc575080517f1626ba7e0000000000000000000000000000000000000000000000000000000090611ada9083016020908101908401612465565b145b9695505050505050565b5f5f5f8351604103611b1d576020840151604085015160608601515f1a611b0f88828585611c36565b955095509550505050611b28565b505081515f91506002905b9250925092565b5f826003811115611b4257611b4261247c565b03611b4b575050565b6001826003811115611b5f57611b5f61247c565b03611b96576040517ff645eedf00000000000000000000000000000000000000000000000000000000815260040160405180910390fd5b6002826003811115611baa57611baa61247c565b03611be4576040517ffce698f700000000000000000000000000000000000000000000000000000000815260048101829052602401611022565b6003826003811115611bf857611bf861247c565b03611c32576040517fd78bce0c00000000000000000000000000000000000000000000000000000000815260048101829052602401611022565b5050565b5f80807f7fffffffffffffffffffffffffffffff5d576e7357a4501ddfe92f46681b20a0841115611c6f57505f91506003905082611d01565b604080515f808252602082018084528a905260ff891692820192909252606081018790526080810186905260019060a0016020604051602081039080840390855afa158015611cc0573d5f5f3e3d5ffd5b5050604051601f19015191505073ffffffffffffffffffffffffffffffffffffffff8116611cf857505f925060019150829050611d01565b92505f91508190505b9450945094915050565b5f60208284031215611d1b575f5ffd5b81357fffffffff0000000000000000000000000000000000000000000000000000000081168114610633575f5ffd5b7f4e487b71000000000000000000000000000000000000000000000000000000005f52604160045260245ffd5b5f60208284031215611d87575f5ffd5b813567ffffffffffffffff811115611d9d575f5ffd5b8201601f81018413611dad575f5ffd5b803567ffffffffffffffff811115611dc757611dc7611d4a565b604051601f19603f601f19601f8501160116810181811067ffffffffffffffff82111715611df757611df7611d4a565b604052818152828201602001861015611e0e575f5ffd5b816020840160208301375f91810160200191909152949350505050565b73ffffffffffffffffffffffffffffffffffffffff81168114611034575f5ffd5b5f5f83601f840112611e5c575f5ffd5b50813567ffffffffffffffff811115611e73575f5ffd5b602083019150836020828501011115611e8a575f5ffd5b9250929050565b5f5f5f5f5f60808688031215611ea5575f5ffd5b8535611eb081611e2b565b94506020860135611ec081611e2b565b935060408601359250606086013567ffffffffffffffff811115611ee2575f5ffd5b611eee88828901611e4c565b969995985093965092949392505050565b5f5f5f60408486031215611f11575f5ffd5b83359250602084013567ffffffffffffffff811115611f2e575f5ffd5b611f3a86828701611e4c565b9497909650939450505050565b5f5f83601f840112611f57575f5ffd5b50813567ffffffffffffffff811115611f6e575f5ffd5b6020830191508360208260051b8501011115611e8a575f5ffd5b5f5f5f5f60408587031215611f9b575f5ffd5b843567ffffffffffffffff811115611fb1575f5ffd5b611fbd87828801611f47565b909550935050602085013567ffffffffffffffff811115611fdc575f5ffd5b611fe887828801611f47565b95989497509550505050565b5f5f5f60608486031215612006575f5ffd5b833567ffffffffffffffff81111561201c575f5ffd5b8401610120818703121561202e575f5ffd5b95602085013595506040909401359392505050565b5f5f5f5f5f5f60608789031215612058575f5ffd5b863567ffffffffffffffff81111561206e575f5ffd5b61207a89828a01611f47565b909750955050602087013567ffffffffffffffff811115612099575f5ffd5b6120a589828a01611f47565b909550935050604087013567ffffffffffffffff8111156120c4575f5ffd5b6120d089828a01611f47565b979a9699509497509295939492505050565b5f5f5f5f606085870312156120f5575f5ffd5b84359350602085013567ffffffffffffffff811115612112575f5ffd5b61211e87828801611e4c565b9598909750949560400135949350505050565b5f5f60408385031215612142575f5ffd5b823561214d81611e2b565b946020939093013593505050565b5f81518084528060208401602086015e5f602082860101526020601f19601f83011685010191505092915050565b7fff000000000000000000000000000000000000000000000000000000000000008816815260e060208201525f6121c360e083018961215b565b82810360408401526121d5818961215b565b6060840188905273ffffffffffffffffffffffffffffffffffffffff8716608085015260a0840186905283810360c0850152845180825260208087019350909101905f5b81811015612237578351835260209384019390920191600101612219565b50909b9a5050505050505050505050565b5f5f5f5f6060858703121561225b575f5ffd5b843561226681611e2b565b935060208501359250604085013567ffffffffffffffff811115612288575f5ffd5b611fe887828801611e4c565b5f5f5f5f5f5f5f5f60a0898b0312156122ab575f5ffd5b88356122b681611e2b565b975060208901356122c681611e2b565b9650604089013567ffffffffffffffff8111156122e1575f5ffd5b6122ed8b828c01611f47565b909750955050606089013567ffffffffffffffff81111561230c575f5ffd5b6123188b828c01611f47565b909550935050608089013567ffffffffffffffff811115612337575f5ffd5b6123438b828c01611e4c565b999c989b5096995094979396929594505050565b5f60208284031215612367575f5ffd5b813561063381611e2b565b5f5f5f5f5f5f60a08789031215612387575f5ffd5b863561239281611e2b565b955060208701356123a281611e2b565b94506040870135935060608701359250608087013567ffffffffffffffff8111156123cb575f5ffd5b6120d089828a01611e4c565b7f4e487b71000000000000000000000000000000000000000000000000000000005f52603260045260245ffd5b5f5f83357fffffffffffffffffffffffffffffffffffffffffffffffffffffffffffffffe1843603018112612437575f5ffd5b83018035915067ffffffffffffffff821115612451575f5ffd5b602001915036819003821315611e8a575f5ffd5b5f60208284031215612475575f5ffd5b5051919050565b7f4e487b71000000000000000000000000000000000000000000000000000000005f52602160045260245ffd5b5f5f858511156124b7575f5ffd5b838611156124c3575f5ffd5b5050820193919092039150565b828152604060208201525f6124e8604083018461215b565b949350505050565b5f82518060208501845e5f92019182525091905056fea2646970667358221220bfa34607ae2d21f3ddbc7e693e762987f39f5972eeb055f91e952c989647117e64736f6c634300081c0033",
    "linkReferences": {}
  },
  "methodIdentifiers": {
    "addDeposit()": "4a58db19",
    "eip712Domain()": "84b0196e",
    "entryPoint()": "b0d691fe",
    "execute(address,uint256,bytes)": "b61d27f6",
    "executeBatch(address[],bytes[])": "18dfb3c7",
    "executeBatch(address[],uint256[],bytes[])": "47e1da2a",
    "getDeposit()": "c399ec88",
    "getMessageHash(bytes)": "0a1028c4",
    "getNonce()": "d087d288",
    "initialize(address)": "c4d66de8",
    "isValidSignature(bytes32,bytes)": "1626ba7e",
    "onERC1155BatchReceived(address,address,uint256[],uint256[],bytes)": "bc197c81",
    "onERC1155Received(address,address,uint256,uint256,bytes)": "f23a6e61",
    "onERC721Received(address,address,uint256,bytes)": "150b7a02",
    "owner()": "8da5cb5b",
    "performCreate(uint256,bytes)": "4c8c9ea1",
    "performCreate2(uint256,bytes,bytes32)": "4847be6f",
    "supportsInterface(bytes4)": "01ffc9a7",
    "transferOwnership(address)": "f2fde38b",
    "validateUserOp((address,uint256,bytes,bytes,bytes32,uint256,bytes32,bytes,bytes),bytes32,uint256)": "19822f7c",
    "withdrawDepositTo(address,uint256)": "4d44560d"
  },
  "id": 1
}