{
  "abi": [
    {
      "type": "constructor",
      "inputs": [
        {
          "name": "owner",
          "type": "address",
          "internalType": "address"
        },
        {
          "name": "accountBeacon",
          "type": "address",
          "internalType": "address"
        },
        {
          "name": "entryPoint",
          "type": "address",
          "internalType": "contract IEntryPoint"
        }
      ],
      "stateMutability": "nonpayable"
    },
    {
      "type": "receive",
      "stateMutability": "payable"
    },
    {
      "type": "function",
      "name": "ACCOUNT_BEACON",
      "inputs": [],
      "outputs": [
        {
          "name": "",
          "type": "address",
          "internalType": "address"
        }
      ],
      "stateMutability": "view"
    },
    {
      "type": "function",
      "name": "ENTRY_POINT",
      "inputs": [],
      "outputs": [
        {
          "name": "",
          "type": "address",
          "internalType": "contract IEntryPoint"
        }
      ],
      "stateMutability": "view"
    },
    {
      "type": "function",
      "name": "acceptOwnership",
      "inputs": [],
      "outputs": [],
      "stateMutability": "nonpayable"
    },
    {
      "type": "function",
      "name": "addStake",
      "inputs": [
        {
          "name": "unstakeDelay",
          "type": "uint32",
          "internalType": "uint32"
        },
        {
          "name": "amount",
          "type": "uint256",
          "internalType": "uint256"
        }
      ],
      "outputs": [],
      "stateMutability": "payable"
    },
    {
      "type": "function",
      "name": "createAccount",
      "inputs": [
        {
          "name": "owner",
          "type": "address",
          "internalType": "address"
        },
        {
          "name": "salt",
          "type": "uint256",
          "internalType": "uint256"
        }
      ],
      "outputs": [
        {
          "name": "account",
          "type": "address",
          "internalType": "contract FlashAccount"
        }
      ],
      "stateMutability": "nonpayable"
    },
    {
      "type": "function",
      "name": "getAccountImplementation",
      "inputs": [],
      "outputs": [
        {
          "name": "",
          "type": "address",
          "internalType": "address"
        }
      ],
      "stateMutability": "view"
    },
    {
      "type": "function",
      "name": "getAddress",
      "inputs": [
        {
          "name": "owner",
          "type": "address",
          "internalType": "address"
        },
        {
          "name": "salt",
          "type": "uint256",
          "internalType": "uint256"
        }
      ],
      "outputs": [
        {
          "name": "",
          "type": "address",
          "internalType": "address"
        }
      ],
      "stateMutability": "view"
    },
    {
      "type": "function",
      "name": "owner",
      "inputs": [],
      "outputs": [
        {
          "name": "",
          "type": "address",
          "internalType": "address"
        }
      ],
      "stateMutability": "view"
    },
    {
      "type": "function",
      "name": "pendingOwner",
      "inputs": [],
      "outputs": [
        {
          "name": "",
          "type": "address",
          "internalType": "address"
        }
      ],
      "stateMutability": "view"
    },
    {
      "type": "function",
      "name": "renounceOwnership",
      "inputs": [],
      "outputs": [],
      "stateMutability": "view"
    },
    {
      "type": "function",
      "name": "transferOwnership",
      "inputs": [
        {
          "name": "newOwner",
          "type": "address",
          "internalType": "address"
        }
      ],
      "outputs": [],
      "stateMutability": "nonpayable"
    },
    {
      "type": "function",
      "name": "unlockStake",
      "inputs": [],
      "outputs": [],
      "stateMutability": "nonpayable"
    },
    {
      "type": "function",
      "name": "withdraw",
      "inputs": [
        {
          "name": "to",
          "type": "address",
          "internalType": "address payable"
        },
        {
          "name": "token",
          "type": "address",
          "internalType": "address"
        },
        {
          "name": "amount",
          "type": "uint256",
          "internalType": "uint256"
        }
      ],
      "outputs": [],
      "stateMutability": "nonpayable"
    },
    {
      "type": "function",
      "name": "withdrawStake",
      "inputs": [
        {
          "name": "to",
          "type": "address",
          "internalType": "address payable"
        }
      ],
      "outputs": [],
      "stateMutability": "nonpayable"
    },
    {
      "type": "event",
      "name": "OwnershipTransferStarted",
      "inputs": [
        {
          "name": "previousOwner",
          "type": "address",
          "indexed": true,
          "internalType": "address"
        },
        {
          "name": "newOwner",
          "type": "address",
          "indexed": true,
          "internalType": "address"
        }
      ],
      "anonymous": false
    },
    {
      "type": "event",
      "name": "OwnershipTransferred",
      "inputs": [
        {
          "name": "previousOwner",
          "type": "address",
          "indexed": true,
          "internalType": "address"
        },
        {
          "name": "newOwner",
          "type": "address",
          "indexed": true,
          "internalType": "address"
        }
      ],
      "anonymous": false
    },
    {
      "type": "error",
      "name": "InvalidAction",
      "inputs": []
    },
    {
      "type": "error",
      "name": "InvalidEntryPoint",
      "inputs": [
        {
          "name": "entryPoint",
          "type": "address",
          "internalType": "address"
        }
      ]
    },
    {
      "type": "error",
      "name": "OwnableInvalidOwner",
      "inputs": [
        {
          "name": "owner",
          "type": "address",
          "internalType": "address"
        }
      ]
    },
    {
      "type": "error",
      "name": "OwnableUnauthorizedAccount",
      "inputs": [
        {
          "name": "account",
          "type": "address",
          "internalType": "address"
        }
      ]
    },
    {
      "type": "error",
      "name": "SafeERC20FailedOperation",
      "inputs": [
        {
          "name": "token",
          "type": "address",
          "internalType": "address"
        }
      ]
    },
    {
      "type": "error",
      "name": "TransferFailed",
      "inputs": []
    },
    {
      "type": "error",
      "name": "ZeroAddressNotAllowed",
      "inputs": []
    }
  ],
  "bytecode": {
    "object": "0x60c060405234801561000f575f5ffd5b506040516110ff3803806110ff83398101604081905261002e9161021b565b826001600160a01b03811661005d57604051631e4fbdf760e01b81525f60048201526024015b60405180910390fd5b61006681610088565b50610070816100a4565b6001600160a01b0391821660a0521660805250610265565b600180546001600160a01b03191690556100a1816100dd565b50565b6100b58163122a0e9b60e31b61012c565b6100a15760405163075b76fd60e21b81526001600160a01b0382166004820152602401610054565b5f80546001600160a01b038381166001600160a01b0319831681178455604051919092169283917f8be0079c531659141344cd1fd0a4f28419497f9722a3daafe3b4186f6b6457e09190a35050565b5f6101368361014e565b801561014757506101478383610181565b9392505050565b5f610160826301ffc9a760e01b610181565b801561017b5750610179826001600160e01b0319610181565b155b92915050565b6040516001600160e01b0319821660248201525f90819060440160408051601f19818403018152919052602080820180516001600160e01b03166301ffc9a760e01b17815282519293505f9283928392909183918a617530fa92503d91505f5190508280156101f1575060208210155b80156101fc57505f81115b979650505050505050565b6001600160a01b03811681146100a1575f5ffd5b5f5f5f6060848603121561022d575f5ffd5b835161023881610207565b602085015190935061024981610207565b604085015190925061025a81610207565b809150509250925092565b60805160a051610e506102af5f395f818160f8015281816102d101528181610455015261049701525f81816101e5015281816105310152818161064601526108a10152610e505ff3fe6080604052600436106100dc575f3560e01c80639d825bc51161007c578063d9caed1211610057578063d9caed121461024e578063e30c39781461026d578063f2fde38b14610297578063fbb1c3d4146102b6575f5ffd5b80639d825bc514610207578063bb9fe6bf1461021b578063c23a5cea1461022f575f5ffd5b806379ba5097116100b757806379ba5097146101785780638cb84e181461018c5780638da5cb5b146101ab57806394430fa5146101d4575f5ffd5b80631ada1701146100e75780635fbfb9cf14610143578063715018a614610162575f5ffd5b366100e357005b5f5ffd5b3480156100f2575f5ffd5b5061011a7f000000000000000000000000000000000000000000000000000000000000000081565b60405173ffffffffffffffffffffffffffffffffffffffff909116815260200160405180910390f35b34801561014e575f5ffd5b5061011a61015d366004610d58565b6102c9565b34801561016d575f5ffd5b50610176610399565b005b348015610183575f5ffd5b506101766103d3565b348015610197575f5ffd5b5061011a6101a6366004610d58565b61044f565b3480156101b6575f5ffd5b505f5473ffffffffffffffffffffffffffffffffffffffff1661011a565b3480156101df575f5ffd5b5061011a7f000000000000000000000000000000000000000000000000000000000000000081565b348015610212575f5ffd5b5061011a610494565b348015610226575f5ffd5b50610176610527565b34801561023a575f5ffd5b50610176610249366004610d82565b6105ac565b348015610259575f5ffd5b50610176610268366004610d9d565b6106a0565b348015610278575f5ffd5b5060015473ffffffffffffffffffffffffffffffffffffffff1661011a565b3480156102a2575f5ffd5b506101766102b1366004610d82565b6107b6565b6101766102c4366004610ddb565b610865565b5f5f5f6103087f000000000000000000000000000000000000000000000000000000000000000061030387875f9182526020526040902090565b610914565b9150915080925081610391576040517fc4d66de800000000000000000000000000000000000000000000000000000000815273ffffffffffffffffffffffffffffffffffffffff868116600483015284169063c4d66de8906024015f604051808303815f87803b15801561037a575f5ffd5b505af115801561038c573d5f5f3e3d5ffd5b505050505b505092915050565b6103a161092c565b6040517f4a7f394f00000000000000000000000000000000000000000000000000000000815260040160405180910390fd5b600154339073ffffffffffffffffffffffffffffffffffffffff168114610443576040517f118cdaa700000000000000000000000000000000000000000000000000000000815273ffffffffffffffffffffffffffffffffffffffff821660048201526024015b60405180910390fd5b61044c81610980565b50565b5f61048d7f000000000000000000000000000000000000000000000000000000000000000061048785855f9182526020526040902090565b306109b1565b9392505050565b5f7f000000000000000000000000000000000000000000000000000000000000000073ffffffffffffffffffffffffffffffffffffffff16635c60da1b6040518163ffffffff1660e01b8152600401602060405180830381865afa1580156104fe573d5f5f3e3d5ffd5b505050506040513d601f19601f820116820180604052508101906105229190610dff565b905090565b61052f61092c565b7f000000000000000000000000000000000000000000000000000000000000000073ffffffffffffffffffffffffffffffffffffffff1663bb9fe6bf6040518163ffffffff1660e01b81526004015f604051808303815f87803b158015610594575f5ffd5b505af11580156105a6573d5f5f3e3d5ffd5b50505050565b6105b461092c565b73ffffffffffffffffffffffffffffffffffffffff8116610601576040517f8579befe00000000000000000000000000000000000000000000000000000000815260040160405180910390fd5b6040517fc23a5cea00000000000000000000000000000000000000000000000000000000815273ffffffffffffffffffffffffffffffffffffffff82811660048301527f0000000000000000000000000000000000000000000000000000000000000000169063c23a5cea906024015f604051808303815f87803b158015610687575f5ffd5b505af1158015610699573d5f5f3e3d5ffd5b5050505050565b6106a861092c565b73ffffffffffffffffffffffffffffffffffffffff83166106f5576040517f8579befe00000000000000000000000000000000000000000000000000000000815260040160405180910390fd5b73ffffffffffffffffffffffffffffffffffffffff82166107a6575f8373ffffffffffffffffffffffffffffffffffffffff16476040515f6040518083038185875af1925050503d805f8114610766576040519150601f19603f3d011682016040523d82523d5f602084013e61076b565b606091505b50509050806105a6576040517f90b8ec1800000000000000000000000000000000000000000000000000000000815260040160405180910390fd5b6107b1828483610a79565b505050565b6107be61092c565b6001805473ffffffffffffffffffffffffffffffffffffffff83167fffffffffffffffffffffffff000000000000000000000000000000000000000090911681179091556108205f5473ffffffffffffffffffffffffffffffffffffffff1690565b73ffffffffffffffffffffffffffffffffffffffff167f38d16b8cac22d99fc7c124b9cd0de2d3fa1faef420bfe791d8c362d765e2270060405160405180910390a350565b61086d61092c565b6040517f0396cb6000000000000000000000000000000000000000000000000000000000815263ffffffff831660048201527f000000000000000000000000000000000000000000000000000000000000000073ffffffffffffffffffffffffffffffffffffffff1690630396cb609083906024015f604051808303818588803b1580156108f9575f5ffd5b505af115801561090b573d5f5f3e3d5ffd5b50505050505050565b5f5f6109215f8585610b06565b915091509250929050565b5f5473ffffffffffffffffffffffffffffffffffffffff16331461097e576040517f118cdaa700000000000000000000000000000000000000000000000000000000815233600482015260240161043a565b565b600180547fffffffffffffffffffffffff000000000000000000000000000000000000000016905561044c81610c05565b604080517f3d50545afa361460525736515af43d600060013e6052573d6001fd5b3d6001f360609081527f527fa3f0ad74e5423aebfd80d3ef4346578335a9a72aeaee59ff6cb3582b351383527b60195155f3363d3d373d3d363d602036600436635c60da1b60e01b3660205273ffffffffffffffffffffffffffffffffffffffff86167c60573d8160223d39730000000000000000000000000000000000000000176004526079600720919092525f91829052610a70818585610c79565b95945050505050565b6040805173ffffffffffffffffffffffffffffffffffffffff8416602482015260448082018490528251808303909101815260649091019091526020810180517bffffffffffffffffffffffffffffffffffffffffffffffffffffffff167fa9059cbb000000000000000000000000000000000000000000000000000000001790526107b1908490610c98565b5f5f6040517f3d50545afa361460525736515af43d600060013e6052573d6001fd5b3d6001f36060527f527fa3f0ad74e5423aebfd80d3ef4346578335a9a72aeaee59ff6cb3582b35136040527b60195155f3363d3d373d3d363d602036600436635c60da1b60e01b366020528460601b60601c6860573d8160223d397360a01b17600452607960072060358201523060581b815260ff8153836015820152605581209150813b610bd157836079600788f5915081610bcc5763301164255f526004601cfd5b610bf4565b600192508515610bf4575f385f3889865af1610bf45763b12d13eb5f526004601cfd5b80604052505f606052935093915050565b5f805473ffffffffffffffffffffffffffffffffffffffff8381167fffffffffffffffffffffffff0000000000000000000000000000000000000000831681178455604051919092169283917f8be0079c531659141344cd1fd0a4f28419497f9722a3daafe3b4186f6b6457e09190a35050565b5f60ff5f5350603592835260601b60015260155260555f908120915290565b5f5f60205f8451602086015f885af180610cb7576040513d5f823e3d81fd5b50505f513d91508115610cce578060011415610ce8565b73ffffffffffffffffffffffffffffffffffffffff84163b155b156105a6576040517f5274afe700000000000000000000000000000000000000000000000000000000815273ffffffffffffffffffffffffffffffffffffffff8516600482015260240161043a565b73ffffffffffffffffffffffffffffffffffffffff8116811461044c575f5ffd5b5f5f60408385031215610d69575f5ffd5b8235610d7481610d37565b946020939093013593505050565b5f60208284031215610d92575f5ffd5b813561048d81610d37565b5f5f5f60608486031215610daf575f5ffd5b8335610dba81610d37565b92506020840135610dca81610d37565b929592945050506040919091013590565b5f5f60408385031215610dec575f5ffd5b823563ffffffff81168114610d74575f5ffd5b5f60208284031215610e0f575f5ffd5b815161048d81610d3756fea26469706673582212207b6e5de8df127a35fc0e48a7059788d1baba0c90f24dc2f0eb6271dd62d3fba064736f6c634300081c0033",
    "linkReferences": {}
  },
  "methodIdentifiers": {
    "ACCOUNT_BEACON()": "1ada1701",
    "ENTRY_POINT()": "94430fa5",
    "acceptOwnership()": "79ba5097",
    "addStake(uint32,uint256)": "fbb1c3d4",
    "createAccount(address,uint256)": "5fbfb9cf",
    "getAccountImplementation()": "9d825bc5",
    "getAddress(address,uint256)": "8cb84e18",
    "owner()": "8da5cb5b",
    "pendingOwner()": "e30c3978",
    "renounceOwnership()": "715018a6",
    "transferOwnership(address)": "f2fde38b",
    "unlockStake()": "bb9fe6bf",
    "withdraw(address,address,uint256)": "d9caed12",
    "withdrawStake(address)": "c23a5cea"
  },
  "id": 2
}