{
  "abi": [
    {
      "type": "constructor",
      "inputs": [
        {
          "name": "weth_",
          "type": "address",
          "internalType": "address"
        }
      ],
      "stateMutability": "nonpayable"
    },
    {
      "type": "function",
      "name": "NATIVE_ADDRESS",
      "inputs": [],
      "outputs": [
        {
          "name": "",
          "type": "address",
          "internalType": "address"
        }
      ],
      "stateMutability": "view"
    },
    {
      "type": "function",
      "name": "WETH",
      "inputs": [],
      "outputs": [
        {
          "name": "",
          "type": "address",
          "internalType": "address"
        }
      ],
      "stateMutability": "view"
    },
    {
      "type": "function",
      "name": "ZERO_ADDRESS",
      "inputs": [],
      "outputs": [
        {
          "name": "",
          "type": "address",
          "internalType": "address"
        }
      ],
      "stateMutability": "view"
    },
    {
      "type": "function",
      "name": "getBalance",
      "inputs": [
        {
          "name": "token",
          "type": "address",
          "internalType": "address"
        },
        {
          "name": "account",
          "type": "address",
          "internalType": "address"
        }
      ],
      "outputs": [
        {
          "name": "",
          "type": "uint256",
          "internalType": "uint256"
        }
      ],
      "stateMutability": "view"
    },
    {
      "type": "function",
      "name": "isApprovedAddress",
      "inputs": [
        {
          "name": "",
          "type": "address",
          "internalType": "address"
        },
        {
          "name": "",
          "type": "address",
          "internalType": "address"
        }
      ],
      "outputs": [
        {
          "name": "",
          "type": "bool",
          "internalType": "bool"
        }
      ],
      "stateMutability": "view"
    },
    {
      "type": "function",
      "name": "transferERC20",
      "inputs": [
        {
          "name": "token",
          "type": "address",
          "internalType": "address"
        },
        {
          "name": "to",
          "type": "address",
          "internalType": "address"
        },
        {
          "name": "amount",
          "type": "uint256",
          "internalType": "uint256"
        }
      ],
      "outputs": [],
      "stateMutability": "nonpayable"
    },
    {
      "type": "function",
      "name": "transferFromERC20",
      "inputs": [
        {
          "name": "token",
          "type": "address",
          "internalType": "address"
        },
        {
          "name": "from",
          "type": "address",
          "internalType": "address"
        },
        {
          "name": "to",
          "type": "address",
          "internalType": "address"
        },
        {
          "name": "amount",
          "type": "uint256",
          "internalType": "uint256"
        }
      ],
      "outputs": [],
      "stateMutability": "nonpayable"
    },
    {
      "type": "function",
      "name": "transferNative",
      "inputs": [
        {
          "name": "to",
          "type": "address",
          "internalType": "address"
        },
        {
          "name": "amount",
          "type": "uint256",
          "internalType": "uint256"
        }
      ],
      "outputs": [],
      "stateMutability": "nonpayable"
    },
    {
      "type": "error",
      "name": "SafeERC20FailedOperation",
      "inputs": [
        {
          "name": "token",
          "type": "address",
          "internalType": "address"
        }
      ]
    },
    {
      "type": "error",
      "name": "ZeroAddress",
      "inputs": []
    },
    {
      "type": "error",
      "name": "ZeroAmount",
      "inputs": []
    }
  ],
  "bytecode": {
    "object": "0x60a0604052348015600e575f5ffd5b50604051610a6d380380610a6d833981016040819052602b916063565b806001600160a01b03811660525760405163d92e233d60e01b815260040160405180910390fd5b6001600160a01b031660805250608e565b5f602082840312156072575f5ffd5b81516001600160a01b03811681146087575f5ffd5b9392505050565b6080516109c76100a65f395f61012001526109c75ff3fe608060405234801561000f575f5ffd5b5060043610610084575f3560e01c8063ad5c464811610058578063ad5c46481461011b578063d4fac45d14610142578063d5bcb61014610163578063dd71105d1461017e575f5ffd5b80628fbb4814610088578063538ba4f9146100c75780637d2e90c2146100f35780639db5dbe414610108575b5f5ffd5b6100b261009636600461089f565b5f60208181529281526040808220909352908152205460ff1681565b60405190151581526020015b60405180910390f35b6100ce5f81565b60405173ffffffffffffffffffffffffffffffffffffffff90911681526020016100be565b6101066101013660046108d0565b610191565b005b6101066101163660046108f8565b610230565b6100ce7f000000000000000000000000000000000000000000000000000000000000000081565b61015561015036600461089f565b61031c565b6040519081526020016100be565b6100ce73eeeeeeeeeeeeeeeeeeeeeeeeeeeeeeeeeeeeeeee81565b61010661018c366004610932565b610330565b73ffffffffffffffffffffffffffffffffffffffff82166101de576040517fd92e233d00000000000000000000000000000000000000000000000000000000815260040160405180910390fd5b5f1981036101e95750475b805f03610222576040517f1f2a200500000000000000000000000000000000000000000000000000000000815260040160405180910390fd5b61022c82826104c7565b5050565b73ffffffffffffffffffffffffffffffffffffffff82161580610267575073ffffffffffffffffffffffffffffffffffffffff8316155b80610287575073ffffffffffffffffffffffffffffffffffffffff83163b155b156102be576040517fd92e233d00000000000000000000000000000000000000000000000000000000815260040160405180910390fd5b5f1981036102d3576102d08330610549565b90505b805f0361030c576040517f1f2a200500000000000000000000000000000000000000000000000000000000815260040160405180910390fd5b610317838383610647565b505050565b5f6103278383610549565b90505b92915050565b73ffffffffffffffffffffffffffffffffffffffff83161580610367575073ffffffffffffffffffffffffffffffffffffffff8216155b80610386575073ffffffffffffffffffffffffffffffffffffffff8416155b806103a6575073ffffffffffffffffffffffffffffffffffffffff84163b155b156103dd576040517fd92e233d00000000000000000000000000000000000000000000000000000000815260040160405180910390fd5b5f19810361047c576040517fdd62ed3e00000000000000000000000000000000000000000000000000000000815273ffffffffffffffffffffffffffffffffffffffff848116600483015230602483015285169063dd62ed3e90604401602060405180830381865afa158015610455573d5f5f3e3d5ffd5b505050506040513d601f19601f82011682018060405250810190610479919061097a565b90505b805f036104b5576040517f1f2a200500000000000000000000000000000000000000000000000000000000815260040160405180910390fd5b6104c1848484846106fb565b50505050565b5f811180156104d65750804710155b1561022c575f5f8373ffffffffffffffffffffffffffffffffffffffff16836040515f6040518083038185875af1925050503d805f8114610532576040519150601f19603f3d011682016040523d82523d5f602084013e610537565b606091505b5091509150816104c157805160208201fd5b5f73ffffffffffffffffffffffffffffffffffffffff83161580610596575073ffffffffffffffffffffffffffffffffffffffff831673eeeeeeeeeeeeeeeeeeeeeeeeeeeeeeeeeeeeeeee145b156105b9575073ffffffffffffffffffffffffffffffffffffffff81163161032a565b6040517f70a0823100000000000000000000000000000000000000000000000000000000815273ffffffffffffffffffffffffffffffffffffffff83811660048301528416906370a0823190602401602060405180830381865afa158015610623573d5f5f3e3d5ffd5b505050506040513d601f19601f82011682018060405250810190610327919061097a565b8015610317575f1981036106f0576040517f70a082310000000000000000000000000000000000000000000000000000000081523060048201525f9073ffffffffffffffffffffffffffffffffffffffff8516906370a0823190602401602060405180830381865afa1580156106bf573d5f5f3e3d5ffd5b505050506040513d601f19601f820116820180604052508101906106e3919061097a565b90506104c184848361070d565b61031783838361070d565b80156104c1576104c18484848461078e565b60405173ffffffffffffffffffffffffffffffffffffffff83811660248301526044820183905261031791859182169063a9059cbb906064015b604051602081830303815290604052915060e01b6020820180517bffffffffffffffffffffffffffffffffffffffffffffffffffffffff83818316178352505050506107d4565b60405173ffffffffffffffffffffffffffffffffffffffff84811660248301528381166044830152606482018390526104c19186918216906323b872dd90608401610747565b5f5f60205f8451602086015f885af1806107f3576040513d5f823e3d81fd5b50505f513d9150811561080a578060011415610824565b73ffffffffffffffffffffffffffffffffffffffff84163b155b156104c1576040517f5274afe700000000000000000000000000000000000000000000000000000000815273ffffffffffffffffffffffffffffffffffffffff8516600482015260240160405180910390fd5b803573ffffffffffffffffffffffffffffffffffffffff8116811461089a575f5ffd5b919050565b5f5f604083850312156108b0575f5ffd5b6108b983610877565b91506108c760208401610877565b90509250929050565b5f5f604083850312156108e1575f5ffd5b6108ea83610877565b946020939093013593505050565b5f5f5f6060848603121561090a575f5ffd5b61091384610877565b925061092160208501610877565b929592945050506040919091013590565b5f5f5f5f60808587031215610945575f5ffd5b61094e85610877565b935061095c60208601610877565b925061096a60408601610877565b9396929550929360600135925050565b5f6020828403121561098a575f5ffd5b505191905056fea26469706673582212204a0803eae5165104ce8c72daadab1794706863246cc72245cc4a6894e9dd961c64736f6c634300081c0033",
    "linkReferences": {}
  },
  "methodIdentifiers": {
    "NATIVE_ADDRESS()": "d5bcb610",
    "WETH()": "ad5c4648",
    "ZERO_ADDRESS()": "538ba4f9",
    "getBalance(address,address)": "d4fac45d",
    "isApprovedAddress(address,address)": "008fbb48",
    "transferERC20(address,address,uint256)": "9db5dbe4",
    "transferFromERC20(address,address,address,uint256)": "dd71105d",
    "transferNative(address,uint256)": "7d2e90c2"
  },
  "id": 4
}